:100000000C9462000C94E8040C94C1040C948A00D3
:100010000C948A000C948A000C9467050C948A0056
:100020000C948A000C948A000C948A000C948A0028
:100030000C948A000C948A000C948A000C948A0018
:100040000C9477040C948A000C9435050C940F05DD
:100050000C948A000C948A000C948A000C948A00F8
:100060000C947E050C948A000000000023002600FA
:10007000290000000000240027002A0000000000E2
:10008000250028002B0004040404040404040202D4
:100090000202020203030303030301020408102007
:1000A0004080010204081020010204081020000012
:1000B0000008000201000003040700000000000027
:1000C00000009D0611241FBECFEFD8E0DEBFCDBFDC
:1000D00011E0A0E0B1E0E8E5F3E102C005900D9287
:1000E000A036B107D9F722E0A0E6B1E001C01D9229
:1000F000A03DB207E1F710E0C2E6D0E004C02197CE
:10010000FE010E94A409C136D107C9F70E94DD068D
:100110000C94AA090C940000CF93E091C302F091D3
:10012000C4029091C10220E43CE98081892349F016
:1001300021503109D1F781E08093CF0280E0CF9147
:10014000089520E43CE98081892341F4215031095C
:10015000D1F782E08093CF028FEFF1CFA091C90257
:10016000B091CA02C091C20280E030E020E040E4D9
:100170005CE96081692341F041505109D1F783E086
:100180008093CF028EEFDBCF6C9140E45CE970810D
:10019000792341F441505109D1F783E08093CF0294
:1001A0008DEFCDCF6C2341E050E009F440E0022E0A
:1001B00001C0440F0A94EAF7842B2F5F3F4F283089
:1001C0003105A9F662E070E020E43CE94081492372
:1001D00059F021503109D1F784E08093CF028CEFA0
:1001E000AECF61E070E0F0CF20E43CE940814923EC
:1001F00041F421503109D1F784E08093CF028BEF95
:100200009ECF6130710569F71092CF0298CF90E0D0
:10021000FC01E255FF4F2491FC01E656FF4F34915B
:10022000FC01EA57FF4FE491EE23C9F0222339F095
:10023000233001F1A8F4213019F1223029F1F0E046
:10024000EE0FFF1FE458FF4FA591B4918FB7F894BC
:10025000EC91611126C030953E233C938FBF0895E9
:100260002730A9F02830C9F0243049F78091800068
:100270008F7D03C0809180008F7780938000DFCFD7
:1002800084B58F7784BDDBCF84B58F7DFBCF809124
:10029000B0008F778093B000D2CF8091B0008F7D77
:1002A000F9CF3E2BDACFCF93DF9390E0FC01E656F7
:1002B000FF4F24918A579F4FFC0184918823D1F0EE
:1002C00090E0880F991FFC01EE58FF4FA591B49163
:1002D000FC01E458FF4FC591D49161110EC09FB746
:1002E000F8948C91E22FE0958E238C932881E22361
:1002F000E8839FBFDF91CF9108958FB7F894EC9179
:10030000E22BEC938FBFF6CF3FB7F89480911202A7
:1003100090911302A0911402B091150226B5A89BEA
:1003200005C02F3F19F00196A11DB11D3FBFBA2F87
:10033000A92F982F8827BC01CD01620F711D811D47
:10034000911D43E0660F771F881F991F4A95D1F7CB
:1003500008952FB7F89460910E0270910F0280916A
:100360001002909111022FBF08950895E091F801B5
:10037000F091F901309729F01092F5011092F401F3
:1003800009940895CF93DF93AC01E091FA01F091C5
:10039000FB013097F1F09091F7018091F6019817E9
:1003A000C0F090E0292F30E02617370754F4D90128
:1003B000A05ABE4F240F351FE90128812C939F5F5F
:1003C000F1CF1092F7016093F601CB01DF91CF914D
:1003D0000994DF91CF9108950895AF92BF92CF9283
:1003E000DF92EF92FF920F931F93CF93DF936C01F5
:1003F0007B018B01040F151FEB015E01AE18BF08D6
:10040000C017D10759F06991D601ED91FC91019087
:10041000F081E02DC6010995892B79F7C501DF919F
:10042000CF911F910F91FF90EF90DF90CF90BF90F1
:10043000AF900895FC01538D448D252F30E0842F1B
:1004400090E0821B930B541710F0CF9608950197FC
:100450000895FC01918D828D981761F0A28DAE0FE9
:10046000BF2FB11D5D968C91928D9F5F9F73928F70
:1004700090E008958FEF9FEF0895FC01918D828D9C
:10048000981731F0828DE80FF11D858D90E0089569
:100490008FEF9FEF0895FC01918D228D892F90E0C1
:1004A000805C9F4F821B91098F739927089586E185
:1004B00092E00E944B0221E0892B09F420E0822F78
:1004C000089580E090E0892B29F00E945702811165
:1004D0000C9400000895FC01A48DA80FB92FB11D44
:1004E000A35ABF4F2C91848D90E001968F7399276A
:1004F000848FA689B7892C93A089B1898C91837048
:1005000080648C93938D848D981306C00288F38940
:10051000E02D80818F7D80830895EF92FF920F936D
:100520001F93CF93DF93EC0181E0888F9B8D8C8D9F
:1005300098131AC0E889F989808185FF15C09FB793
:10054000F894EE89FF896083E889F9898081837056
:10055000806480839FBF81E090E0DF91CF911F9105
:100560000F91FF90EF900895F62E0B8D10E00F5F26
:100570001F4F0F731127E02E8C8D8E110CC00FB6FC
:1005800007FCFACFE889F989808185FFF5CFCE0194
:100590000E946B02F1CFEB8DEC0FFD2FF11DE35AA2
:1005A000FF4FF0829FB7F8940B8FEA89FB89808117
:1005B0008062CFCFCF93DF93EC01888D8823B9F091
:1005C000AA89BB89E889F9898C9185FD03C080815E
:1005D00086FD0DC00FB607FCF7CF8C9185FFF2CFDB
:1005E000808185FFEDCFCE010E946B02E9CFDF91C4
:1005F000CF9108954115510529F4EAE7F0E0808193
:100600008F7780836A307105B9F0CB01880F991F0D
:10061000880F991F807267706860682B88E10FB639
:10062000F894A895809360000FBE60936000E0E6A8
:10063000F0E0808180648083232BD9F483B7817FAD
:10064000846083BFF89483B7816083BF85B7806679
:1006500085BF8F7D85BF7894889583B78E7F83BF54
:100660007894452B29F4EAE7F0E080818068808364
:10067000089583B7817F846083BFF89483B78160D6
:1006800083BF7894889583B78E7F83BF7894E9CFB2
:100690002091A601260F3327331F21323105ECF4B8
:1006A0002091CA01FC0190E080E0243069F082E0F2
:1006B0000895A091A6012191AC014A575E4FA40F65
:1006C000B52FB11D2C930196861798F38091A60142
:1006D000680F6093A60180E0089581E0089510926C
:1006E000CA0181E08093CC011092CB0161E082E1EC
:1006F0000E94070161E083E10E940701E9EBF0E05D
:1007000080818E7F808380818D7F808380E2809353
:10071000B80085E48093BC0008950895E091F70146
:100720008091F601E81730F4F0E0E05AFE4F808146
:1007300090E008958FEF9FEF08959091F7018091D9
:10074000F6012FEF3FEF981748F4E92FF0E0E05A59
:10075000FE4F208130E09F5F9093F701C90108951B
:100760008091F6019091F701891B990B0895CF9321
:10077000DF93CB01EA01642F0E944803CE01DF9191
:10078000CF910895CF93DF931F92CDB7DEB76983E2
:1007900061E0CE0101960E94480381E090E00F9055
:1007A000DF91CF91089590E080E008951816190622
:1007B00034F483EB92E00E949D038093FC01089542
:1007C000CF93DF9300D0CDB7DEB78091FC018231AB
:1007D000A1F480910C02898380910B028A8342E00C
:1007E00050E0BE016F5F7F4F83EB92E00E94B70342
:1007F0000F900F90DF91CF91089560E083EB92E02E
:100800000E94C203F5CFCF93DF93FC01019000203B
:10081000E9F73197AF01481B590BBC0186E192E023
:100820000E94ED01EC0142E050E069E271E086E1F6
:1008300092E00E94ED018C0F9D1FDF91CF910895F2
:10084000CF93DF9385ED8093BC00809182019091DE
:100850008301A0918401B09185010796A11DB11D6E
:1008600023E0B695A795979587952A95D1F720917E
:10087000BC0024FD03C01092CA0136C04091820121
:10088000509183016091840170918501452B462B25
:10089000472B69F30097A105B10541F025E12A95A1
:1008A000F1F700000197A109B109E1CF8091810121
:1008B00091E0909380018823B9F0C091B800D09165
:1008C000BA008091BC008A7B8093BC0060E082E12A
:1008D0000E94070160E083E10E9407010E946F030C
:1008E000D093BA00C093B800DF91CF9108951F92C2
:1008F0000F920FB60F9211242F933F938F939F93D4
:10090000AF93BF9380910E0290910F02A0911002BD
:10091000B091110230910D0226E0230F2D3758F5CA
:100920000296A11DB11D20930D0280930E0290939B
:100930000F02A0931002B0931102809112029091C5
:100940001302A0911402B09115020196A11DB11DD0
:100950008093120290931302A0931402B093150295
:10096000BF91AF919F918F913F912F910F900FBEAB
:100970000F901F90189529E8230F0396A11DB11D14
:10098000D2CF1F920F920FB60F9211242F933F9345
:100990004F935F936F937F938F939F93AF93BF9387
:1009A000EF93FF93E0910201F09103010995FF910C
:1009B000EF91BF91AF919F918F917F916F915F91D7
:1009C0004F913F912F910F900FBE0F901F90189550
:1009D0001F920F920FB60F9211242F933F934F93B4
:1009E0005F936F937F938F939F93AF93BF93EF9397
:1009F000FF93E0910001F09101010995FF91EF91C2
:100A0000BF91AF919F918F917F916F915F914F9126
:100A10003F912F910F900FBE0F901F9018951F922E
:100A20000F920FB60F9211242F933F934F935F9322
:100A30006F937F938F939F93AF93BF93EF93FF93A6
:100A400086E192E00E946B02FF91EF91BF91AF911E
:100A50009F918F917F916F915F914F913F912F91D6
:100A60000F900FBE0F901F9018951F920F920FB608
:100A70000F9211242F938F939F93EF93FF93E09105
:100A80002602F09127028081E0912C02F0912D0244
:100A900082FD1BC0908180912F028F5F8F73209108
:100AA0003002821741F0E0912F02F0E0EA5EFD4F44
:100AB000958F80932F02FF91EF919F918F912F91AE
:100AC0000F900FBE0F901F9018958081F4CF1F924A
:100AD0000F920FB60F9211248F930FB6F894A8952A
:100AE00080916000886180936000109260000FBE6A
:100AF0008F910F900FBE0F901F9018951F920F921D
:100B00000FB60F9211242F933F934F935F936F93E0
:100B10007F938F939F93AF93BF93EF93FF938091B6
:100B2000B900887F803609F44AC0F0F5883209F4AC
:100B3000A7C018F5803109F49BC0B8F4882309F4E4
:100B4000F9C0883009F494C0FF91EF91BF91AF9143
:100B50009F918F917F916F915F914F913F912F91D5
:100B60000F900FBE0F901F901895883109F488C020
:100B7000803251F78093C90114C0803409F49DC0BC
:100B800040F48033B9F38833F9F68093C90185ECDA
:100B9000B0C0803509F485C0883509F496C0883422
:100BA00099F60E942004D0CF883909F48CC038F51A
:100BB000883729F050F4883611F0803729F683E021
:100BC0008093CA011092C80157C0883809F47BC0CD
:100BD000803919F0803809F0B7CF8091C801803290
:100BE00008F071C0E091C80181E08E0F8093C801C8
:100BF0008091BB00F0E0E855FE4F80833DC0803B14
:100C000039F0E0F4803A09F479C0883A09F09CCFD1
:100C100084E08093CA011092A7011092A601E0918E
:100C2000F201F091F30109958091A60181110FC0A5
:100C300081E08093A6011092860109C0803C09F4EE
:100C4000A6CF883C09F4A3CF883B09F07DCFE09183
:100C5000A70181E08E0F8093A701F0E0EA57FE4FD5
:100C600080818093BB009091A7018091A60129C04B
:100C70008091EF018093BB0085EC8093BC0064CF32
:100C80009091EE018091ED01981758F5E091EE01F9
:100C900081E08E0F8093EE01F0E0E353FE4F808100
:100CA000E9CFE091EE0181E08E0F8093EE0180911B
:100CB000BB00F0E0E353FE4F80839091EE01809102
:100CC000ED019817C8F285E8D8CFE091EE0181E0F8
:100CD0008E0F8093EE018091BB00F0E0E353FE4F56
:100CE00080838091CC0181115CCF81E08093CB0126
:100CF00084EA8093BC001092CA0126CF85EC8093D1
:100D0000BC001092CA018091C801803230F4E09199
:100D1000C801F0E0E855FE4F10826091C80170E014
:100D2000E091F001F091F10188EA91E009951092CB
:100D3000C8010ACF1092C90134CFE6E1F2E0138274
:100D4000128288EE93E0A0E0B0E084839583A683CE
:100D5000B78329E031E03183208325EC30E035870B
:100D6000248724EC30E03787268720EC30E0318B75
:100D7000208B21EC30E0338B228B22EC30E0358B62
:100D8000248B26EC30E0378B268B118E128E138E3F
:100D9000148EE3EBF2E01382128284839583A683A0
:100DA000B7838BE191E091838083EFEBF2E083E006
:100DB000808387E08183108A0895789484B5826067
:100DC00084BD84B5816084BD85B5826085BD85B5EF
:100DD000816085BD80916E00816080936E0010926D
:100DE00081008091810082608093810080918100E8
:100DF0008160809381008091800081608093800079
:100E00008091B10084608093B1008091B0008160D6
:100E10008093B00080917A00846080937A00809102
:100E20007A00826080937A0080917A008E7F80932E
:100E30007A0080917A00806880937A001092C100D5
:100E400061E084E00E94530161E084E00E940701B8
:100E500061E086E00E94530160E086E00E940701A5
:100E600060E082E00E94530161E08EE00E94530145
:100E700061E08EE00E9407011092F7011092F601E6
:100E80001092F5011092F4010E946F0386EB91E03D
:100E90009093F3018093F20182EC91E09093F10141
:100EA0008093F00184E88093BA0080EE93E0909301
:100EB000F9018093F80186ED93E09093FB01809314
:100EC000FA012091BF0230E0F901E656FF4F44914C
:100ED0004093C1028091C00290E0FC01E656FF4FB2
:100EE000E491E093C2022A573F4FF90124918A57B7
:100EF0009F4FFC01849130E0220F331FF901E85924
:100F0000FF4F659174917093C4026093C302F9011D
:100F1000EE58FF4FA591B491B093C602A093C502BD
:100F2000F901E458FF4F259134913093C802209382
:100F3000C70290E0880F991FFC01E859FF4F2591E7
:100F400034913093CA022093C902FC01EE58FF4F3E
:100F5000259134913093CC022093CB02FC01E458CC
:100F6000FF4F859194919093CE028093CD02EC91A6
:100F700040954E234C93E091C702F091C8028081C6
:100F80009091C102892B8083E091CB02F091CC0239
:100F900090818091C202809589238083E091CD0267
:100FA000F091CE0280819091C202892B8083E091E2
:100FB0002602F091270282E08083E0912202F091E4
:100FC00023021082E0912402F091250288E08083C0
:100FD00010922E02E0912A02F0912B0286E080838B
:100FE000E0912802F0912902808180618083E09164
:100FF0002802F0912902808188608083E091280294
:10100000F0912902808180688083E0912802F0912C
:10101000290280818F7D80838CE291E00E9403040D
:10102000E5EB8E2EE1E09E2ECCEED1E006EB11E05A
:10103000F2ECAF2EF1E0BF2E56ED252E53E0352E0B
:101040000E948C00D82E83FF4FC0E82EF12C0E9406
:101050008C00C82E0E948C002C2D30E0A70194E05B
:10106000440F551F9A95E1F744275170241B350B07
:1010700090E043E0EE0CFF1C4A95E1F7EE24F1E02E
:10108000FF228E199F09D6FE04C037FDA2C02FE7AC
:1010900030E0D7FE04C097FD9FC08FE790E0203876
:1010A0004FEF340714F420E83FEF8038EFEF9E074E
:1010B00014F480E89FEF2038310514F02FE730E07A
:1010C000219520930C028038910514F08FE790E071
:1010D00080930B02109207021092080210920902EC
:1010E00010920A02109204018091060281110DC132
:1010F0000E94A901C0900202D0900302E090040275
:10110000F09005026C197D098E099F096A307105FE
:1011100081059105D8F060E08EE00E94070181E032
:10112000809306020E9484016093FE017093FF0188
:1011300080930002909301020E94A9016093020231
:10114000709303028093040290930502809104013E
:101150008823B9F00E94A90169397A438105910574
:1011600058F1109204010E94A90160930702709344
:1011700008028093090290930A0280910401811170
:101180001BC080910602811117C0C0900702D09049
:101190000802E0900902F0900A02C114D104E104AF
:1011A000F104E9F40E94A901609307027093080218
:1011B0008093090290930A02E0E0F0E0EF2B09F43B
:1011C0003FCF0E945702882309F436CF0E940000C7
:1011D00033CF20E83FEF5DCF80E89FEF60CF0E94E4
:1011E000A9016C197D098E099F09603D7740810531
:1011F000910510F38DE491E00E94030486E192E0F2
:101200000E94DA020E9484012B013C018AE0C82E70
:10121000D12CE12CF12C0E948401641975098609F6
:101220009709683E734081059105A8F341E0C41A0F
:10123000D108E108F10888EE480E83E0581E611CD1
:10124000711CC114D104E104F10429F761E08EE0BE
:101250000E94070160E08DE00E9407019092010169
:101260008092000180916900836080936900E89A10
:1012700030E020E050E040E06AE070E08DEF91E087
:101280000E94FA02E898D0930101C09300011092E5
:10129000F7011092F6011092F5011092F4010E94EC
:1012A0006F031093F3010093F201B092F101A09249
:1012B000F001F4E8F093BA0080EE93E09093F90126
:1012C0008093F8013092FB012092FA0110920C02F7
:1012D00010920B021092FC0189E591E00E94030438
:1012E0000E94A9016093020270930302809304029A
:1012F00090930502109206021092070210920802C3
:101300001092090210920A0257CF0E948401C090E5
:10131000FE01D090FF01E0900002F09001026C19F4
:101320007D098E099F09643671058105910508F4D0
:101330000DCF61E08EE00E94070110920C02109226
:101340000B021092060202CFEE0FFF1F0590F491E0
:08135000E02D0994F894FFCF91
:10135800EC01EC0101000000008D02ED011A02DA37
:10136800024B0229023D0200000000C203B703D36A
:10137800038D03B0039D038E030D0A002D2D2D2030
:1013880049324320536C617665202B2050532F320D
:10139800202B20536C656570202D2D2D00536C6516
:1013A8006570696E672E2E2E00576F6B65210000E1
:00000001FF
