:100000000C9462000C948A000C948A000C948A0070
:100010000C948A000C948A000C948A000C948A0038
:100020000C948A000C948A000C948A000C948A0028
:100030000C948A000C948A000C948A000C948A0018
:100040000C94F5020C948A000C9465030C943F0305
:100050000C948A000C948A000C948A000C948A00F8
:100060000C948A000C948A000000000023002600F3
:10007000290000000008000201000003040700003E
:1000800000000000000000000000250028002B00F8
:1000900000000000240027002A00040404040404D3
:1000A0000404020202020202030303030303010227
:1000B00004081020408001020408102001020408F6
:1000C0001020970311241FBECFEFD8E0DEBFCDBFB5
:1000D00011E0A0E0B1E0EAE9FBE002C005900D927A
:1000E000A836B107D9F722E0A8E6B1E001C01D9219
:1000F000AF31B207E1F710E0C2E6D0E004C02197CB
:10010000FE010E94C505C136D107C9F70E94CB0385
:100110000C94CB050C94000090E0FC01E255FF4FDD
:10012000249186569F4FFC018491882399F090E09A
:10013000880F991FFC01E057FF4FA591B491FC0176
:10014000EA57FF4F859194918FB7F894EC91E22B89
:10015000EC938FBF0895CF93E0911202F0911302B8
:100160009091100220E43CE98081892349F02150DC
:100170003109D1F781E080931E0280E0CF9108958C
:1001800020E43CE98081892341F421503109D1F7F1
:1001900082E080931E028FEFF1CFA0911802B09100
:1001A0001902C091110280E030E020E040E45CE9F7
:1001B0006081692341F041505109D1F783E0809378
:1001C0001E028EEFDBCF6C9140E45CE970817923F5
:1001D00041F441505109D1F783E080931E028DEF25
:1001E000CDCF6C2341E050E009F440E0022E01C085
:1001F000440F0A94EAF7842B2F5F3F4F28303105D4
:10020000A9F662E070E020E43CE94081492359F01E
:1002100021503109D1F784E080931E028CEFAECFDC
:1002200061E070E0F0CF20E43CE94081492341F4F3
:1002300021503109D1F784E080931E028BEF9ECFCD
:100240006130710569F710921E0298CF90E0FC01B1
:10025000EE58FF4F2491FC01E255FF4F3491FC0111
:10026000E656FF4FE491EE23C9F0222339F0233004
:1002700001F1A8F4213019F1223029F1F0E0EE0F5C
:10028000FF1FEA57FF4FA591B4918FB7F894EC91F7
:10029000611126C030953E233C938FBF08952730CF
:1002A000A9F02830C9F0243049F7809180008F7D73
:1002B00003C0809180008F7780938000DFCF84B56A
:1002C0008F7784BDDBCF84B58F7DFBCF8091B0006D
:1002D0008F778093B000D2CF8091B0008F7DF9CF1F
:1002E0003E2BDACF3FB7F89480916D0190916E016B
:1002F000A0916F01B091700126B5A89B05C02F3F5A
:1003000019F00196A11DB11D3FBFBA2FA92F982F3B
:100310008827BC01CD01620F711D811D911D43E035
:10032000660F771F881F991F4A95D1F70895AF92DE
:10033000BF92CF92DF92EF92FF920F931F93CF93D2
:10034000DF936C017B018B01040F151FEB015E0134
:10035000AE18BF08C017D10759F06991D601ED91C9
:10036000FC910190F081E02DC6010995892B79F768
:10037000C501DF91CF911F910F91FF90EF90DF901A
:10038000CF90BF90AF900895FC01538D448D252FE1
:1003900030E0842F90E0821B930B541710F0CF961F
:1003A000089501970895FC01918D828D981761F051
:1003B000A28DAE0FBF2FB11D5D968C91928D9F5F68
:1003C0009F73928F90E008958FEF9FEF0895FC0147
:1003D000918D828D981731F0828DE80FF11D858DFA
:1003E00090E008958FEF9FEF0895FC01918D228D8D
:1003F000892F90E0805C9F4F821B91098F73992712
:10040000089581E791E00E94F50121E0892B09F42C
:1004100020E0822F089580E090E0892B29F00E944F
:10042000010281110C9400000895FC01A48DA80F15
:10043000B92FB11DA35ABF4F2C91848D90E0019626
:100440008F739927848FA689B7892C93A089B18946
:100450008C91837080648C93938D848D981306C0E7
:100460000288F389E02D80818F7D80830895EF924B
:10047000FF920F931F93CF93DF93EC0181E0888F5E
:100480009B8D8C8D98131AC0E889F989808185FF2E
:1004900015C09FB7F894EE89FF896083E889F989D0
:1004A00080818370806480839FBF81E090E0DF91D2
:1004B000CF911F910F91FF90EF900895F62E0B8D25
:1004C00010E00F5F1F4F0F731127E02E8C8D8E11E0
:1004D0000CC00FB607FCFACFE889F989808185FF47
:1004E000F5CFCE010E941502F1CFEB8DEC0FFD2F61
:1004F000F11DE35AFF4FF0829FB7F8940B8FEA8902
:10050000FB8980818062CFCFCF93DF93EC01888D10
:100510008823B9F0AA89BB89E889F9898C9185FD7E
:1005200003C0808186FD0DC00FB607FCF7CF8C910C
:1005300085FFF2CF808185FFEDCFCE010E941502AD
:10054000E9CFDF91CF910895FC0101900020E9F7F8
:100550003197AF01481B590BBC0181E791E00C9426
:1005600097018F929F92AF92BF920F931F93CF9359
:10057000DF93CDB7DEB7A1970FB6F894DEBF0FBEFD
:10058000CDBF19A2423008F44AE08E010F5D1F4F23
:10059000842E912CB12CA12CA50194010E94A305BD
:1005A000E62FB901CA01EA30F4F4E05DD801EE9318
:1005B0008D01232B242B252B79F790E080E01097D9
:1005C00019F0CD010E94A402A1960FB6F894DEBFE7
:1005D0000FBECDBFDF91CF911F910F91BF90AF9014
:1005E0009F908F900895E95CE1CF1F920F920FB614
:1005F0000F9211242F933F938F939F93AF93BF93A9
:100600008091690190916A01A0916B01B0916C0198
:100610003091680126E0230F2D3758F50296A11D71
:10062000B11D209368018093690190936A01A093A2
:100630006B01B0936C0180916D0190916E01A0915E
:100640006F01B09170010196A11DB11D80936D01E4
:1006500090936E01A0936F01B0937001BF91AF9121
:100660009F918F913F912F910F900FBE0F901F90F0
:10067000189529E8230F0396A11DB11DD2CF1F9213
:100680000F920FB60F9211242F933F934F935F93C6
:100690006F937F938F939F93AF93BF93EF93FF934A
:1006A00081E791E00E941502FF91EF91BF91AF9118
:1006B0009F918F917F916F915F914F913F912F917A
:1006C0000F900FBE0F901F9018951F920F920FB6AC
:1006D0000F9211242F938F939F93EF93FF93E091A9
:1006E0008101F09182018081E0918701F091880180
:1006F00082FD1BC0908180918A018F5F8F73209152
:100700008B01821741F0E0918A01F0E0EF58FE4F33
:10071000958F80938A01FF91EF919F918F912F91F7
:100720000F900FBE0F901F9018958081F4CFE1E7D6
:10073000F1E01382128288EE93E0A0E0B0E08483BF
:100740009583A683B78384E091E09183808385ECD1
:1007500090E09587848784EC90E09787868780EC8B
:1007600090E0918B808B81EC90E0938B828B82EC7C
:1007700090E0958B848B86EC90E0978B868B118E26
:10078000128E138E148EEEE0F2E087E0808383E019
:100790008183108A0895789484B5826084BD84B57D
:1007A000816084BD85B5826085BD85B5816085BD6C
:1007B00080916E00816080936E0010928100809124
:1007C00081008260809381008091810081608093AC
:1007D0008100809180008160809380008091B100D1
:1007E00084608093B1008091B00081608093B000FC
:1007F00080917A00846080937A0080917A00826090
:1008000080937A0080917A008E7F80937A00809125
:100810007A00806880937A001092C10084E00E9480
:100820008C0061E084E00E94260186E00E948C003A
:1008300060E086E00E942601E0918101F091820152
:1008400082E08083E0917D01F0917E011082E09151
:100850007F01F091800188E0808310928901E0910E
:100860008501F091860186E08083E0918301F0911B
:100870008401808180618083E0918301F091840113
:10088000808188608083E0918301F0918401808180
:1008900080688083E0918301F091840180818F7D65
:1008A000808382E191E00E94A4028AE391E00E94A9
:1008B000A40220910E0230E0F901E255FF4F44916D
:1008C0004093100280910F0290E0FC01E255FF4F2F
:1008D000E491E093110226563F4FF9012491865688
:1008E0009F4FFC01849130E0220F331FF901E8593A
:1008F000FF4F659174917093130260931202F90196
:10090000E057FF4FA591B491B0931502A093140244
:10091000F901EA57FF4F2591349130931702209344
:10092000160290E0880F991FFC01E859FF4F2591AE
:1009300034913093190220931802FC01E057FF4FC5
:100940002591349130931B0220931A02FC01EA573F
:10095000FF4F8591949190931D0280931C02EC911E
:1009600040954E234C93E0911602F091170280813E
:1009700090911002892B8083E0911A02F0911B0262
:10098000908180911102809589238083E0911C02DF
:10099000F0911D02808190911102892B80830E9429
:1009A00072014B015C01F0EDCF2EF7E0DF2EE12C60
:1009B000F12C0E947201681979098A099B09683E25
:1009C000734081059105A8F3F1E0CF1AD108E10841
:1009D000F10828EE820E23E0921EA11CB11CC11466
:1009E000D104E104F10429F78DE391E00E94A4020F
:1009F0008AE391E00E94A40200E010E00E94AB00B4
:100A0000D82F83FF8EC0E82EF12C0E94AB00C82F98
:100A10000E94AB002C2F30E0A701BA0194E0660FD2
:100A2000771F9A95E1F766277170261B370B90E0C8
:100A300063E0440F551F6A95E1F744275170841B0A
:100A4000950BD6FF04C037FD78C02FE730E0D7FF05
:100A500004C097FD75C08FE790E02038EFEF3E07A8
:100A600014F420E83FEF8038FFEF9F0714F480E88C
:100A70009FEF2038310514F02FE730E0F22E803858
:100A8000910514F08FE790E0C82FD7708DE591E0C5
:100A90000E94A4028F2C0F2C000C9908AA08BB08F6
:100AA0004AE0C501B401F7FE0DC06DE281E791E0B7
:100AB0000E94370266277727CB01681979098A09CE
:100AC0009B094AE00E94B10280E691E00E94A402E4
:100AD000CC2E0C2E000CDD08EE08FF084AE0C70102
:100AE000B601C7FF0DC06DE281E791E00E943702B9
:100AF00066277727CB016C197D098E099F094AE08B
:100B00000E94B10284E691E00E94A4026D2F70E081
:100B100090E080E04AE00E94B1028AE391E00E9406
:100B2000A4020115110509F469CF0E94010288236E
:100B300009F464CF0E94000061CF20E83FEF87CF27
:100B400080E89FEF8ACFA1E21A2EAA1BBB1BFD01F2
:100B50000DC0AA1FBB1FEE1FFF1FA217B307E4079C
:100B6000F50720F0A21BB30BE40BF50B661F771FF4
:100B7000881F991F1A9469F76095709580959095D4
:100B80009B01AC01BD01CF010895EE0FFF1F059041
:0A0B9000F491E02D0994F894FFCFD2
:100B9A000000000037029701C4018402F501D30165
:100BAA00E7012D2D2D2045787030363A2054726198
:100BBA00636B506F696E742053657269616C205261
:100BCA006561646572202D2D2D000D0A0052656144
:100BDA0064792E204D6F76652074686520547261A1
:100BEA00636B506F696E74206E75622E00583A00FE
:080BFA0020593A0020423A00A4
:00000001FF
