:100000000C9462000C948A000C948A000C94AD034A
:100010000C948A000C948A000C948A000C948A0038
:100020000C948A000C948A000C948A000C948A0028
:100030000C948A000C948A000C948A000C948A0018
:100040000C940B030C94B7030C947B030C94550392
:100050000C948A000C948A000C948A000C948A00F8
:100060000C948A000C948A000000000023002600F3
:10007000290000000008000201000003040700003E
:1000800000000000000000000000250028002B00F8
:1000900000000000240027002A00040404040404D3
:1000A0000404020202020202030303030303010227
:1000B00004081020408001020408102001020408F6
:1000C0001020120411241FBECFEFD8E0DEBFCDBF39
:1000D00011E0A0E0B1E0E0EDFDE002C005900D927E
:1000E000A038B107D9F722E0A0E8B1E001C01D9225
:1000F000A53DB207E1F710E0C2E6D0E004C02197C9
:10010000FE010E94E006C136D107C9F70E944604ED
:100110000C94E6060C94000090E0FC01E255FF4FC1
:10012000249186569F4FFC018491882399F090E09A
:10013000880F991FFC01E057FF4FA591B491FC0176
:10014000EA57FF4F859194918FB7F894EC91E22B89
:10015000EC938FBF0895E4E7F0E02491E0EBF0E04A
:100160009491ECE9F0E0E491EE23C9F0222339F018
:10017000233001F1A8F4213019F1223029F1F0E007
:10018000EE0FFF1FEA57FF4FA591B4912FB7F894D8
:10019000EC91811126C090959E239C932FBF0895CA
:1001A0002730A9F02830C9F0243049F72091800089
:1001B0002F7D03C0209180002F7720938000DFCF18
:1001C00024B52F7724BDDBCF24B52F7DFBCF209125
:1001D000B0002F772093B000D2CF2091B0002F7DB8
:1001E000F9CF9E2BDACFCF93E091C802F091C902EC
:1001F0009091C60220E43CE98081892349F0215096
:100200003109D1F781E08093D40280E0CF91089545
:1002100020E43CE98081892341F421503109D1F760
:1002200082E08093D4028FEFF1CFA091CE02B09103
:10023000CF02C091C70280E030E020E040E45CE9FA
:100240006081692341F041505109D1F783E08093E7
:10025000D4028EEFDBCF6C9140E45CE970817923AE
:1002600041F441505109D1F783E08093D4028DEFDE
:10027000CDCF6C2341E050E009F440E0022E01C0F4
:10028000440F0A94EAF7842B2F5F3F4F2830310543
:10029000A9F662E070E020E43CE94081492359F08E
:1002A00021503109D1F784E08093D4028CEFAECF96
:1002B00061E070E0F0CF20E43CE94081492341F463
:1002C00021503109D1F784E08093D4028BEF9ECF87
:1002D0006130710569F71092D40298CF3FB7F89456
:1002E0008091230290912402A0912502B0912602D0
:1002F00026B5A89B05C02F3F19F00196A11DB11D81
:100300003FBFBA2FA92F982F8827BC01CD01620FBC
:10031000711D811D911D43E0660F771F881F991F76
:100320004A95D1F708952FB7F89460911F02709104
:10033000200280912102909122022FBF0895AF9256
:10034000BF92CF92DF92EF92FF920F931F93CF93C2
:10035000DF936C017B018B01040F151FEB015E0124
:10036000AE18BF08C017D10759F06991D601ED91B9
:10037000FC910190F081E02DC6010995892B79F758
:10038000C501DF91CF911F910F91FF90EF90DF900A
:10039000CF90BF90AF900895FC01538D448D252FD1
:1003A00030E0842F90E0821B930B541710F0CF960F
:1003B000089501970895FC01918D828D981761F041
:1003C000A28DAE0FBF2FB11D5D968C91928D9F5F58
:1003D0009F73928F90E008958FEF9FEF0895FC0137
:1003E000918D828D981731F0828DE80FF11D858DEA
:1003F00090E008958FEF9FEF0895FC01918D228D7D
:10040000892F90E0805C9F4F821B91098F73992701
:10041000089587E292E00E94FD0121E0892B09F412
:1004200020E0822F089580E090E0892B29F00E943F
:10043000090281110C9400000895FC01A48DA80FFD
:10044000B92FB11DA35ABF4F2C91848D90E0019616
:100450008F739927848FA689B7892C93A089B18936
:100460008C91837080648C93938D848D981306C0D7
:100470000288F389E02D80818F7D80830895EF923B
:10048000FF920F931F93CF93DF93EC0181E0888F4E
:100490009B8D8C8D98131AC0E889F989808185FF1E
:1004A00015C09FB7F894EE89FF896083E889F989C0
:1004B00080818370806480839FBF81E090E0DF91C2
:1004C000CF911F910F91FF90EF900895F62E0B8D15
:1004D00010E00F5F1F4F0F731127E02E8C8D8E11D0
:1004E0000CC00FB607FCFACFE889F989808185FF37
:1004F000F5CFCE010E941D02F1CFEB8DEC0FFD2F49
:10050000F11DE35AFF4FF0829FB7F8940B8FEA89F1
:10051000FB8980818062CFCFCF93DF93EC01888D00
:100520008823B9F0AA89BB89E889F9898C9185FD6E
:1005300003C0808186FD0DC00FB607FCF7CF8C91FC
:1005400085FFF2CF808185FFEDCFCE010E941D0295
:10055000E9CFDF91CF910895FC0101900020E9F7E8
:100560003197AF01481B590BBC0187E292E00C9414
:100570009F018F929F92AF92BF920F931F93CF9341
:10058000DF93CDB7DEB7A1970FB6F894DEBF0FBEED
:10059000CDBF19A2423008F44AE08E010F5D1F4F13
:1005A000842E912CB12CA12CA50194010E94BE0691
:1005B000E62FB901CA01EA30F4F4E05DD801EE9308
:1005C0008D01232B242B252B79F790E080E01097C9
:1005D00019F0CD010E94AC02A1960FB6F894DEBFCF
:1005E0000FBECDBFDF91CF911F910F91BF90AF9004
:1005F0009F908F900895E95CE1CFCF93DF930E94A5
:10060000AC02EC0182E191E00E94AC028C0F9D1FD4
:10061000DF91CF9108951F920F920FB60F92112480
:100620002F933F938F939F93AF93BF9380911F021C
:1006300090912002A0912102B091220230911E02DD
:1006400026E0230F2D3758F50296A11DB11D2093EA
:100650001E0280931F0290932002A0932102B09368
:1006600022028091230290912402A0912502B09150
:1006700026020196A11DB11D8093230290932402AE
:10068000A0932502B0932602BF91AF919F918F91C5
:100690003F912F910F900FBE0F901F90189529E852
:1006A000230F0396A11DB11DD2CF1F920F920FB63B
:1006B0000F9211242F933F934F935F936F937F93E8
:1006C0008F939F93AF93BF93EF93FF9387E292E053
:1006D0000E941D02FF91EF91BF91AF919F918F9169
:1006E0007F916F915F914F913F912F910F900FBE2E
:1006F0000F901F9018951F920F920FB60F92112412
:100700002F938F939F93EF93FF93E0913702F09194
:1007100038028081E0913D02F0913E0282FD1BC0D3
:100720009081809140028F5F8F73209141028217E8
:1007300041F0E0914002F0E0E95DFD4F958F80933C
:100740004002FF91EF919F918F912F910F900FBEDB
:100750000F901F9018958081F4CF1F920F920FB6C3
:100760000F9211240F900FBE0F901F9018951F929B
:100770000F920FB60F9211248F939F93EF93FF93D5
:100780008EB5909105029F5F9093050290910302B0
:1007900091112AC0E82FEF77E0930202982F90780A
:1007A0009093010287FF05C081E0809303021EBC85
:1007B0000AC0E23189F482E08093030210920002C1
:1007C000809113028EBDFF91EF919F918F910F90B9
:1007D0000FBE0F901F90189581E080930302F0E008
:1007E000E058FE4F8081EECF913079F49091010274
:1007F000992341F0E0910202F0E0E058FE4F80833F
:100800001092010210920302D2CF9230E1F6E091F1
:100810000002EF5FE0930002E730A0F7F0E0ED5E4A
:10082000FD4FE0CFE7E2F2E01382128288EE93E020
:10083000A0E0B0E084839583A683B78384E091E051
:100840009183808385EC90E09587848784EC90E0A9
:100850009787868780EC90E0918B808B81EC90E08D
:10086000938B828B82EC90E0958B848B86EC90E06E
:10087000978B868B118E128E138E148EE4ECF2E021
:1008800087E0808383E08183108A0895789484B51B
:10089000826084BD84B5816084BD85B5826085BD7C
:1008A00085B5816085BD80916E00816080936E000A
:1008B00010928100809181008260809381008091FC
:1008C00081008160809381008091800081608093AD
:1008D00080008091B10084608093B1008091B0006D
:1008E00081608093B00080917A00846080937A0068
:1008F00080917A00826080937A0080917A008E7F66
:1009000080937A0080917A00806880937A001092B8
:10091000C10082E00E948C0081E00E94AB008CE06C
:100920000E948C008CEC8CBD1EBC809168008160A4
:100930008093680080916B00846080936B001092BC
:1009400013021092140210921502109216021092C5
:1009500017021092180210921902109203022091AD
:10096000C40230E0F901E255FF4F44914093C602C2
:100970008091C50290E0FC01E255FF4FE491E093C5
:10098000C70226563F4FF901249186569F4FFC011E
:10099000849130E0220F331FF901E859FF4F659130
:1009A00074917093C9026093C802F901E057FF4F38
:1009B000A591B491B093CB02A093CA02F901EA5772
:1009C000FF4F259134913093CD022093CC0290E0DB
:1009D000880F991FFC01E859FF4F259134913093FE
:1009E000CF022093CE02FC01E057FF4F25913491B6
:1009F0003093D1022093D002FC01EA57FF4F85913A
:100A000094919093D3028093D202EC9140954E231F
:100A10004C93E091CC02F091CD0280819091C6027E
:100A2000892B8083E091D002F091D1029081809156
:100A3000C702809589238083E091D202F091D3028E
:100A400080819091C702892B8083E0913702F091D9
:100A5000380282E08083E0913302F0913402108208
:100A6000E0913502F091360288E0808310923F02D7
:100A7000E0913B02F0913C0286E08083E0913902F4
:100A8000F0913A02808180618083E0913902F09197
:100A90003A02808188608083E0913902F0913A02C5
:100AA000808180688083E0913902F0913A028081F0
:100AB0008F7D808385E191E00E94FD0284E391E0D7
:100AC0000E94FD02C0E0D0E011E00E94F300D82EA9
:100AD00083FF6EC0E82EF12C0E94F300082F0E94C5
:100AE000F300202F30E0A701BA0194E0660F771FD2
:100AF0009A95E1F766277170261B370B90E063E04B
:100B0000440F551F6A95E1F744275170841B950BDC
:100B1000D6FE04C037FD06C12FE730E0D7FE04C083
:100B200097FD03C18FE790E02038FFEF3F0714F4F3
:100B300020E83FEF80384FEF940714F480E89FEFF0
:100B40002038310514F02FE730E08038910514F09B
:100B50008FE790E0422F022E000C550B27FDE8C0D6
:100B60009A01482F082E000C550B87FD505FF89412
:100B700010931302209314024093150284E03695DB
:100B800027958A95E1F7207F252B20931602109256
:100B90001702109218021092190278940E94930181
:100BA00060931A0270931B0280931C0290931D02A3
:100BB000C0901A02D0901B02E0901C02F0901D021F
:100BC000C114D104E104F104E9F00E9493016C190D
:100BD0007D098E099F09653F71408105910590F05F
:100BE000F8941092130210921402109215021092AF
:100BF0001602789410921A0210921B0210921C0294
:100C000010921D028091120281119EC00E949301D8
:100C1000C0900E02D0900F02E0901002F0901102EE
:100C20006C197D098E099F096A307105810591054E
:100C3000C8F080E00E94AB00109312020E946E0187
:100C400060930A0270930B0280930C0290930D0242
:100C50000E94930160930E0270930F028093100222
:100C6000909311020E949301C0900602D090070257
:100C7000E0900802F09009026C197D098E099F0925
:100C8000603D77408105910508F441C0009105025F
:100C900080910402081709F452C085E591E00E9492
:100CA000AC02602F70E090E080E04AE00E94B90260
:100CB00081E691E00E94AC0280910402202F281B63
:100CC000330B6901032E000CEE08FF0837FF33C019
:100CD0006DE287E292E00E943F0266277727CB0110
:100CE0006C197D098E099F094AE00E94B9028EE7BE
:100CF00091E00E94FD02009304020E949301609320
:100D000006027093070280930802909309022097CD
:100D100009F4DBCE0E940902882309F4D6CE0E9492
:100D20000000D3CE20E83FEFF9CE80E89FEFFCCE65
:100D30009A01305F16CF4AE0C701B601D6CF85E6EB
:100D400091E00E94FD02D9CF0E946E01C0900A027C
:100D5000D0900B02E0900C02F0900D026C197D090E
:100D60008E099F09643671058105910508F47ACFD3
:100D700081E00E94AB001092120274CFA1E21A2E01
:100D8000AA1BBB1BFD010DC0AA1FBB1FEE1FFF1F2F
:100D9000A217B307E407F50720F0A21BB30BE40B7F
:100DA000F50B661F771F881F991F1A9469F76095C6
:100DB0007095809590959B01AC01BD01CF01089580
:100DC000EE0FFF1F0590F491E02D0994F894FFCFEA
:100DD000000000003F029F01CC018C02FD01DB01FD
:100DE000EF010D0A002D2D2D20504D573336313097
:100DF00020656D756C61746F722045787030372096
:100E00002D2D2D00547261636B506F696E742050EC
:100E1000532F3220E286922053504920706970652A
:100E20006C696E65005350492062797465733A208D
:100E30000020282B005350492062797465733A20B2
:100E40003020286E6F206163746976697479290097
:00000001FF
