:100000000C9458000C9480000C9480000C94800098
:100010000C9480000C9480000C9480000C94800060
:100020000C9480000C9480000C9480000C94800050
:100030000C9480000C9480000C9480000C94800040
:100040000C9489030C9480000C94F9030C94D30352
:100050000C9480000C9480000C9480000C94800020
:100060000C9480000C948000000000002500280003
:100070002B0000000000240027002A0000000000E0
:1000800023002600290004040404040404040202DA
:100090000202020203030303030301020408102007
:1000A00040800102040810200102040810202B04E3
:1000B00011241FBECFEFD8E0DEBFCDBF11E0A0E01E
:1000C000B1E0EEEEFCE002C005900D92A239B1075E
:1000D000D9F722E0A2E9B1E001C01D92A934B2072C
:1000E000E1F710E0C8E5D0E004C02197FE010E94CE
:1000F0006F06C735D107C9F70E945F040C947506D7
:100100000C9400001F93CF93DF939C01E0913C027D
:10011000F0913D0290913A0221153105A9F58081B7
:100120008923E9F780818923E9F3A0914202B09104
:10013000430270913B0280E030E020E0408149239F
:10014000E9F76C91672341E050E009F440E0022EAA
:1001500001C0440F0A94EAF7842B40814923E9F354
:100160002F5F3F4F2830310549F720812923E9F7D8
:1001700020812923E9F320812923E9F720812923FC
:10018000E9F3109248020BC0A9018081892359F03C
:1001900041505109D1F781E08093480280E0DF911E
:1001A000CF911F910895A9018081892341F4415085
:1001B0005109D1F782E0809348028FEFF0CFC091D0
:1001C0004202D091430210913B0280E050E040E0B7
:1001D000B901A081A92341F061507109D1F783E0F1
:1001E000809348028EEFDBCFA881B901B081B9239B
:1001F00041F461507109D1F783E0809348028DEF9B
:10020000CECFA12361E070E009F460E0042E01C0CC
:10021000660F0A94EAF7862B4F5F5F4F483051050F
:10022000B9F6A9016081692341F041505109D1F724
:1002300084E0809348028CEFB2CFA90160816923EA
:1002400041F441505109D1F784E0809348028BEF8B
:10025000A6CFA9016081692321F041505109D1F74E
:10026000E7CF4081492309F08CCF21503109C9F7EC
:10027000EBCFE0913E02F0913F02908120913A0253
:10028000922B9083E0914002F09141022081909165
:100290003A02909592239083E8E2F1E03197F1F7EA
:1002A000E0914402F0914502908120913B02922B13
:1002B0009083E0914602F0914702208190913B02A9
:1002C000909592239083E0913E02F0913F0220812D
:1002D00090913A02909592239083E0914002F091A0
:1002E0004102908120913A02922B908361E030E0AC
:1002F00020E0A82FB0E0E0913C02F0913D02909107
:100300003A0280818923E9F7E0914602F0914702A1
:1003100090913B02AD01022E02C0559547950A947B
:10032000E2F7542F5170808140FF5CC0982B90837E
:10033000452F4627E0913C02F0913D0290913A0210
:1003400080818923E9F32F5F3F4F2830310509F081
:1003500047C080818923E9F7E0914602F091470286
:1003600080913B029081561709F43FC0892B80830E
:10037000E0913C02F0913D0290913A028081892304
:10038000E9F380818923E9F7E0914402F091450285
:10039000908180913B02809589238083E091460281
:1003A000F0914702808190913B02892B8083A0913C
:1003B0003C02B0913D0220913A028C918223E9F3F4
:1003C000E0914202F091430290913B0280818923A7
:1003D000E9F78C91822319F080818923D1F7089560
:1003E000642F89CF90959823A2CF80958923BFCF82
:1003F0003FB7F8948091970190919801A09199014D
:10040000B0919A0126B5A89B05C02F3F19F001961F
:10041000A11DB11D3FBFBA2FA92F982F8827BC015E
:10042000CD01620F711D811D911D43E0660F771F85
:10043000881F991F4A95D1F70895AF92BF92CF9226
:10044000DF92EF92FF920F931F93CF93DF936C0194
:100450007B018B01040F151FEB015E01AE18BF0875
:10046000C017D10759F06991D601ED91FC91019027
:10047000F081E02DC6010995892B79F7C501DF913F
:10048000CF911F910F91FF90EF90DF90CF90BF9091
:10049000AF900895FC01538D448D252F30E0842FBB
:1004A00090E0821B930B541710F0CF96089501979C
:1004B0000895FC01918D828D981761F0A28DAE0F89
:1004C000BF2FB11D5D968C91928D9F5F9F73928F10
:1004D00090E008958FEF9FEF0895FC01918D828D3C
:1004E000981731F0828DE80FF11D858D90E0089509
:1004F0008FEF9FEF0895FC01918D228D892F90E061
:10050000805C9F4F821B91098F73992708958BE917
:1005100091E00E947B0221E0892B09F420E0822FE8
:10052000089580E090E0892B29F00E9487028111D4
:100530000C9400000895FC01A48DA80FB92FB11DE3
:10054000A35ABF4F2C91848D90E001968F73992709
:10055000848FA689B7892C93A089B1898C918370E7
:1005600080648C93938D848D981306C00288F389E0
:10057000E02D80818F7D80830895EF92FF920F930D
:100580001F93CF93DF93EC0181E0888F9B8D8C8D3F
:1005900098131AC0E889F989808185FF15C09FB733
:1005A000F894EE89FF896083E889F98980818370F6
:1005B000806480839FBF81E090E0DF91CF911F91A5
:1005C0000F91FF90EF900895F62E0B8D10E00F5FC6
:1005D0001F4F0F731127E02E8C8D8E110CC00FB69C
:1005E00007FCFACFE889F989808185FFF5CFCE0134
:1005F0000E949B02F1CFEB8DEC0FFD2FF11DE35A12
:10060000FF4FF0829FB7F8940B8FEA89FB898081B6
:100610008062CFCFCF93DF93EC01888D8823B9F030
:10062000AA89BB89E889F9898C9185FD03C08081FD
:1006300086FD0DC00FB607FCF7CF8C9185FFF2CF7A
:10064000808185FFEDCFCE010E949B02E9CFDF9133
:10065000CF910895FC0101900020E9F73197AF0197
:10066000481B590BBC018BE991E00C941D028F9241
:100670009F92AF92BF920F931F93CF93DF93CDB70B
:10068000DEB7A1970FB6F894DEBF0FBECDBF19A29B
:10069000423008F44AE08E010F5D1F4F842E912CEA
:1006A000B12CA12CA50194010E944D06E62FB901A1
:1006B000CA01EA30F4F4E05DD801EE938D01232BFA
:1006C000242B252B79F790E080E0109719F0CD01CD
:1006D0000E942A03A1960FB6F894DEBF0FBECDBFCD
:1006E000DF91CF911F910F91BF90AF909F908F900E
:1006F0000895E95CE1CFCF93DF930E942A03EC01D8
:1007000082E191E00E942A038C0F9D1FDF91CF911F
:1007100008951F920F920FB60F9211242F933F93BB
:100720008F939F93AF93BF93809193019091940186
:10073000A0919501B09196013091920126E0230F8E
:100740002D3758F50296A11DB11D2093920180937B
:10075000930190939401A0939501B0939601809199
:10076000970190919801A0919901B0919A010196F9
:10077000A11DB11D8093970190939801A0939901B9
:10078000B0939A01BF91AF919F918F913F912F911B
:100790000F900FBE0F901F90189529E8230F039616
:1007A000A11DB11DD2CF1F920F920FB60F9211242F
:1007B0002F933F934F935F936F937F938F939F9369
:1007C000AF93BF93EF93FF938BE991E00E949B025D
:1007D000FF91EF91BF91AF919F918F917F916F9119
:1007E0005F914F913F912F910F900FBE0F901F90EF
:1007F00018951F920F920FB60F9211242F938F937B
:100800009F93EF93FF93E091AB01F091AC01808156
:10081000E091B101F091B20182FD1BC09081809105
:10082000B4018F5F8F732091B501821741F0E09181
:10083000B401F0E0E556FE4F958F8093B401FF912F
:10084000EF919F918F912F910F900FBE0F901F905E
:1008500018958081F4CFEBE9F1E01382128288EEE3
:1008600093E0A0E0B0E084839583A683B78384E01F
:1008700091E09183808385EC90E09587848784EC78
:1008800090E09787868780EC90E0918B808B81EC5D
:1008900090E0938B828B82EC90E0958B848B86EC3E
:1008A00090E0978B868B118E128E138E148EE8E358
:1008B000F2E087E0808383E08183108A0895789452
:1008C00084B5826084BD84B5816084BD85B5826055
:1008D00085BD85B5816085BD80916E008160809306
:1008E0006E0010928100809181008260809381006F
:1008F000809181008160809381008091800081607F
:10090000809380008091B10084608093B1008091D9
:10091000B00081608093B00080917A008460809301
:100920007A0080917A00826080937A0080917A00C8
:100930008E7F80937A0080917A00806880937A001D
:100940001092C100E091AB01F091AC0182E0808394
:10095000E091A701F091A8011082E091A901F09126
:10096000AA0188E080831092B301E091AF01F09179
:10097000B00186E08083E091AD01F091AE0180810D
:1009800080618083E091AD01F091AE01808188604B
:100990008083E091AD01F091AE0180818068808319
:1009A000E091AD01F091AE0180818F7D808385E182
:1009B00091E00E947B032091380230E0F901E65675
:1009C000FF4F449140933A028091390290E0FC013C
:1009D000E656FF4FE491E0933B022A573F4FF9015F
:1009E00024918A579F4FFC01849130E0220F331FDE
:1009F000F901E458FF4F6591749170933D02609343
:100A00003C02F901EE58FF4FA591B491B0933F021B
:100A1000A0933E02F901E859FF4F2591349130939C
:100A200041022093400290E0880F991FFC01E45896
:100A3000FF4F259134913093430220934202FC01F1
:100A4000EE58FF4F25913491309345022093440294
:100A5000FC01E859FF4F8591949190934702809350
:100A60004602EC9140954E234C93E0914002F09168
:100A70004102808190913A02892B8083E091440267
:100A8000F0914502908180913B028095892380837B
:100A9000E0914602F0914702808190913B02892BC0
:100AA00080830E94F8014B015C01F0EDCF2EF7E04E
:100AB000DF2EE12CF12C0E94F801681979098A09CE
:100AC0009B09683E734081059105A8F3F1E0CF1AB8
:100AD000D108E108F10828EE820E23E0921EA11C45
:100AE000B11CC114D104E104F10429F78DE391E0B4
:100AF0000E942A038FEF0E94390190E080E00E945B
:100B0000820090E080E00E94820090E080E00E94FD
:100B100082008AE491E00E947B0380E591E00E94DC
:100B20002A0384EF0E94390190E080E00E94820055
:100B30008AE491E00E947B0386E691E00E947B03B9
:100B400000E010E080E49CE90E948200D82F83FF3F
:100B500092C0E82EF12C80E49CE90E948200C82F0C
:100B600080E49CE90E9482002C2F30E0A701BA01AA
:100B700094E0660F771F9A95E1F766277170261B40
:100B8000370B90E063E0440F551F6A95E1F7442767
:100B90005170841B950BD6FF04C037FD78C02FE73A
:100BA00030E0D7FF04C097FD75C08FE790E0203894
:100BB000EFEF3E0714F420E83FEF8038FFEF9F0788
:100BC00014F480E89FEF2038310514F02FE730E06F
:100BD000F22E8038910514F08FE790E0C82FD7707F
:100BE00086E891E00E942A038F2C0F2C000C9908B4
:100BF000AA08BB084AE0C501B401F7FE0DC06DE2CA
:100C00008BE991E00E94BD0266277727CB01681926
:100C100079098A099B094AE00E94370389E891E033
:100C20000E942A03CC2E0C2E000CDD08EE08FF08D3
:100C30004AE0C701B601C7FF0DC06DE28BE991E044
:100C40000E94BD0266277727CB016C197D098E09AA
:100C50009F094AE00E9437038DE891E00E942A0331
:100C60006D2F70E090E080E04AE00E94370382E15F
:100C700091E00E942A030115110509F463CF0E9437
:100C80008702882309F45ECF0E9400005BCF20E832
:100C90003FEF87CF80E89FEF8ACFA1E21A2EAA1BF1
:100CA000BB1BFD010DC0AA1FBB1FEE1FFF1FA2171C
:100CB000B307E407F50720F0A21BB30BE40BF50B19
:100CC000661F771F881F991F1A9469F760957095A2
:100CD000809590959B01AC01BD01CF010895EE0F69
:0E0CE000FF1F0590F491E02D0994F894FFCFCA
:100CEE0000000000BD021D024A020A037B025902E7
:100CFE006D020D0A002D2D2D2045787030363A20CC
:100D0E00547261636B506F696E74205365726961C2
:100D1E006C20526561646572202D2D2D0052657315
:100D2E00657474696E672E2E2E0020646F6E6500DA
:100D3E00456E61626C696E672073747265616D6970
:100D4E006E672E2E2E0052656164792E204D6F76C1
:100D5E00652074686520547261636B506F696E74A0
:100D6E00206E75622E00583A0020593A0020423A01
:020D7E00000073
:00000001FF
