:100000000C945D000C9485000C9485000C94850084
:100010000C9485000C9485000C9485000C9485004C
:100020000C9485000C9485000C9485000C9485003C
:100030000C9485000C9485000C9485000C9485002C
:100040000C9463030C9485000C94D3030C94AD03BF
:100050000C9485000C9485000C9485000C9485000C
:100060000C9405040C9485000000000800020100B7
:100070000003040700000000000000000000000072
:10008000250028002B0000000000240027002A0083
:10009000040404040404040402020202020203032E
:1000A0000303030301020408102040800102040836
:1000B0001020010204081020240511241FBECFEFD8
:1000C000D8E0DEBFCDBF11E0A0E0B1E0E4EDFDE09F
:1000D00002C005900D92AE35B107D9F723E0AEE529
:1000E000B1E001C01D92A933B207E1F710E0CDE500
:1000F000D0E004C02197FE010E94E206CC35D10772
:10010000C9F70E945D050C94E8060C94000090E08D
:10011000FC01EC55FF4F249180579F4FFC018491C7
:10012000882399F090E0880F991FFC01EA57FF4F50
:10013000A591B491FC01E458FF4F859194918FB73C
:10014000F894EC91E22BEC938FBF089590E0FC01C2
:10015000E859FF4F2491FC01EC55FF4F3491FC010D
:10016000E057FF4FE491EE23C9F0222339F023300A
:1001700001F1A8F4213019F1223029F1F0E0EE0F5D
:10018000FF1FE458FF4FA591B4918FB7F894EC91FD
:10019000611126C030953E233C938FBF08952730D0
:1001A000A9F02830C9F0243049F7809180008F7D74
:1001B00003C0809180008F7780938000DFCF84B56B
:1001C0008F7784BDDBCF84B58F7DFBCF8091B0006E
:1001D0008F778093B000D2CF8091B0008F7DF9CF20
:1001E0003E2BDACF3FB7F89480918C0290918D022C
:1001F000A0918E02B0918F0226B5A89B05C02F3F1B
:1002000019F00196A11DB11D3FBFBA2FA92F982F3C
:100210008827BC01CD01620F711D811D911D43E036
:10022000660F771F881F991F4A95D1F70895E091AF
:10023000F701F091F801309729F01092F401109233
:10024000F30109940895CF93DF93AC01E091F90194
:10025000F091FA013097F1F09091F6018091F5015B
:100260009817C0F090E0292F30E02617370754F494
:10027000D901A15ABE4F240F351FE90128812C93C3
:100280009F5FF1CF1092F6016093F501CB01DF91F2
:10029000CF910994DF91CF910895AF92BF92CF9201
:1002A000DF92EF92FF920F931F93CF93DF936C0136
:1002B0007B018B01040F151FEB015E01AE18BF0817
:1002C000C017D10759F06991D601ED91FC910190C9
:1002D000F081E02DC6010995892B79F7C501DF91E1
:1002E000CF911F910F91FF90EF90DF90CF90BF9033
:1002F000AF900895FC01538D448D252F30E0842F5D
:1003000090E0821B930B541710F0CF96089501973D
:100310000895FC01918D828D981761F0A28DAE0F2A
:10032000BF2FB11D5D968C91928D9F5F9F73928FB1
:1003300090E008958FEF9FEF0895FC01918D828DDD
:10034000981731F0828DE80FF11D858D90E00895AA
:100350008FEF9FEF0895FC01918D228D892F90E002
:10036000805C9F4F821B91098F739927089580E9C4
:1003700092E00E94AB0121E0892B09F420E0822F5A
:10038000089580E090E0892B29F00E94B701811147
:100390000C9400000895FC01A48DA80FB92FB11D85
:1003A000A35ABF4F2C91848D90E001968F739927AB
:1003B000848FA689B7892C93A089B1898C91837089
:1003C00080648C93938D848D981306C00288F38982
:1003D000E02D80818F7D80830895EF92FF920F93AF
:1003E0001F93CF93DF93EC0181E0888F9B8D8C8DE1
:1003F00098131AC0E889F989808185FF15C09FB7D5
:10040000F894EE89FF896083E889F9898081837097
:10041000806480839FBF81E090E0DF91CF911F9146
:100420000F91FF90EF900895F62E0B8D10E00F5F67
:100430001F4F0F731127E02E8C8D8E110CC00FB63D
:1004400007FCFACFE889F989808185FFF5CFCE01D5
:100450000E94CB01F1CFEB8DEC0FFD2FF11DE35A84
:10046000FF4FF0829FB7F8940B8FEA89FB89808158
:100470008062CFCFCF93DF93EC01888D8823B9F0D2
:10048000AA89BB89E889F9898C9185FD03C080819F
:1004900086FD0DC00FB607FCF7CF8C9185FFF2CF1C
:1004A000808185FFEDCFCE010E94CB01E9CFDF91A6
:1004B000CF9108952091A501260F3327331F2132B4
:1004C0003105ECF42091C901FC0190E080E024307A
:1004D00069F082E00895A091A5012191AC014B57EC
:1004E0005E4FA40FB52FB11D2C930196861798F37C
:1004F0008091A501680F6093A50180E0089581E0D7
:1005000008951092C90181E08093CB011092CA0135
:1005100061E082E10E94A60061E083E10E94A60002
:10052000E9EBF0E080818E7F808380818D7F808306
:1005300080E28093B80085E48093BC00089508951C
:10054000E091F6018091F501E81730F4F0E0E15A0E
:10055000FE4F808190E008958FEF9FEF0895909176
:10056000F6018091F5012FEF3FEF981748F4E92F3E
:10057000F0E0E15AFE4F208130E09F5F9093F6015A
:10058000C90108958091F5019091F601891B990B9D
:100590000895CF93DF93CB01EA01642F0E945A02A2
:1005A000CE01DF91CF910895CF93DF931F92CDB706
:1005B000DEB7698361E0CE0101960E945A0281E0B4
:1005C00090E00F90DF91CF91089590E080E0089542
:1005D0001816190634F48DE293E00E94AF0280935E
:1005E0005E01089560915E01623169F442E050E07D
:1005F0006EEF71E08DE293E00E94C9021092FE015D
:100600001092FF01089570E064507E4F41E050E089
:100610008DE293E00C94C902CF93DF9385ED809334
:10062000BC008091810190918201A0918301B091E1
:1006300084010796A11DB11D23E0B695A795979556
:1006400087952A95D1F72091BC0024FD03C0109214
:10065000C90136C0409181015091820160918301AE
:1006600070918401452B462B472B69F30097A10518
:10067000B10541F025E12A95F1F700000197A109A4
:10068000B109E1CF8091800191E090937F018823AF
:10069000B9F0C091B800D091BA008091BC008A7BBB
:1006A0008093BC0060E082E10E94A60060E083E1EC
:1006B0000E94A6000E948102D093BA00C093B800A5
:1006C000DF91CF9108951F920F920FB60F921124D0
:1006D0002F933F938F939F93AF93BF938091880203
:1006E00090918902A0918A02B0918B023091870289
:1006F00026E0230F2D3758F50296A11DB11D20933A
:1007000087028093880290938902A0938A02B09313
:100710008B0280918C0290918D02A0918E02B091FB
:100720008F020196A11DB11D80938C0290938D02C2
:10073000A0938E02B0938F02BF91AF919F918F9142
:100740003F912F910F900FBE0F901F90189529E8A1
:10075000230F0396A11DB11DD2CF1F920F920FB68A
:100760000F9211242F933F934F935F936F937F9337
:100770008F939F93AF93BF93EF93FF9380E992E0A2
:100780000E94CB01FF91EF91BF91AF919F918F910B
:100790007F916F915F914F913F912F910F900FBE7D
:1007A0000F901F9018951F920F920FB60F92112461
:1007B0002F938F939F93EF93FF93E091A002F0917B
:1007C000A1028081E091A602F091A70282FD1BC0E8
:1007D00090818091A9028F5F8F732091AA02821766
:1007E00041F0E091A902F0E0E057FD4F958F809332
:1007F000A902FF91EF919F918F912F910F900FBEC2
:100800000F901F9018958081F4CF1F920F920FB612
:100810000F9211242F933F934F935F936F937F9386
:100820008F939F93AF93BF93EF93FF938091B90002
:10083000887F803609F44AC0F0F5883209F4A7C0F1
:1008400018F5803109F49BC0B8F4882309F4F9C085
:10085000883009F494C0FF91EF91BF91AF919F91BF
:100860008F917F916F915F914F913F912F910F9059
:100870000FBE0F901F901895883109F488C0803200
:1008800051F78093C80114C0803409F49DC040F42E
:100890008033B9F38833F9F68093C80185ECB0C092
:1008A000803509F485C0883509F496C0883499F6F6
:1008B0000E940C03D0CF883909F48CC038F58837F2
:1008C00029F050F4883611F0803729F683E08093C0
:1008D000C9011092C70157C0883809F47BC080391C
:1008E00019F0803809F0B7CF8091C701803208F045
:1008F00071C0E091C70181E08E0F8093C7018091A4
:10090000BB00F0E0E955FE4F80833DC0803B39F0ED
:10091000E0F4803A09F479C0883A09F09CCF84E089
:100920008093C9011092A6011092A501E091F101F6
:10093000F091F20109958091A50181110FC081E02C
:100940008093A5011092850109C0803C09F4A6CFCF
:10095000883C09F4A3CF883B09F07DCFE091A60144
:1009600081E08E0F8093A601F0E0EB57FE4F80816F
:100970008093BB009091A6018091A50129C0809130
:10098000EE018093BB0085EC8093BC0064CF909116
:10099000ED018091EC01981758F5E091ED0181E0AF
:1009A0008E0F8093ED01F0E0E453FE4F8081E9CF9C
:1009B000E091ED0181E08E0F8093ED018091BB000D
:1009C000F0E0E453FE4F80839091ED018091EC01C3
:1009D0009817C8F285E8D8CFE091ED0181E08E0F3D
:1009E0008093ED018091BB00F0E0E453FE4F8083E3
:1009F0008091CB0181115CCF81E08093CA0184EAB0
:100A00008093BC001092C90126CF85EC8093BC0076
:100A10001092C9018091C701803230F4E091C70182
:100A2000F0E0E955FE4F10826091C70170E0E0915F
:100A3000EF01F091F00187EA91E009951092C7016A
:100A40000ACF1092C80134CFE0E9F2E0138212829B
:100A500088EE93E0A0E0B0E084839583A683B7831B
:100A600024E131E03183208325EC30E03587248791
:100A700024EC30E03787268720EC30E0318B208B68
:100A800021EC30E0338B228B22EC30E0358B248B51
:100A900026EC30E0378B268B118E128E138E148E3F
:100AA000EDE2F3E01382128284839583A683B783F9
:100AB00086E291E0918380830895789484B5826082
:100AC00084BD84B5816084BD85B5826085BD85B5F2
:100AD000816085BD80916E00816080936E00109270
:100AE00081008091810082608093810080918100EB
:100AF000816080938100809180008160809380007C
:100B00008091B10084608093B1008091B0008160D9
:100B10008093B00080917A00846080937A00809105
:100B20007A00826080937A0080917A008E7F809331
:100B30007A0080917A00806880937A001092C100D8
:100B40008DE00E948700C0E06C2F61708DE00E94F4
:100B5000A6000E94F2004B015C0184E6C82ED12C55
:100B6000E12CF12C0E94F200681979098A099B098D
:100B7000683E734081059105A8F321E0C21AD108AF
:100B8000E108F10888EE880E83E0981EA11CB11CD4
:100B9000C114D104E104F10429F7CF5FC630A1F6F6
:100BA0008EE00E94870061E08EE00E94A6008EE346
:100BB0008093FC011092F6011092F5011092F4015D
:100BC0001092F3010E94810287E191E09093F2017B
:100BD0008093F10183E291E09093F0018093EF0123
:100BE00084E88093BA0082EF92E09093F8018093BA
:100BF000F70188EE92E09093FA018093F901E09179
:100C0000A002F091A10282E08083E0919C02F09129
:100C10009D021082E0919E02F0919F0288E0808305
:100C20001092A802E091A402F091A502C083E09185
:100C3000A202F091A302808180618083E091A202F0
:100C4000F091A302808188608083E091A202F091FC
:100C5000A302808180688083E091A202F091A302C8
:100C600080818F7D808346E250E064E371E080E91B
:100C700092E00E944D0142E050E06BE571E080E9B6
:100C800092E00E944D01C0E0D0E080918602811187
:100C90007BC02FB7F8948091880290918902A0912F
:100CA0008A02B0918B022FBF409182025091830241
:100CB0006091840270918502841B950BA60BB70B83
:100CC0004497A105B10508F45FC080917D02909121
:100CD0007C0224E0829FF0011124E050FF4F238129
:100CE000022E000C330B9217130694F59F5F90931E
:100CF0007C0260E08EE00E94A60081E08093860284
:100D00000E94F20060937E0270937F0280938002C3
:100D1000909381022FB7F894809188029091890274
:100D2000A0918A02B0918B022FBF80938202909390
:100D30008302A0938402B0938502209709F4A5CF83
:100D40000E94B701882309F4A0CF0E9400009DCF24
:100D500010927C02918120812093FE019093FF01EB
:100D60009091FB019F5F9093FB012281022E000C6A
:100D7000330B921713060CF4BCCF8F5F83708093F4
:100D80007D021092FB01B5CF809186028823A9F2E3
:100D90000E94F200C0907E02D0907F02E09080021C
:100DA000F09081026C197D098E099F0964367105E6
:100DB0008105910510F261E08EE00E94A60010927C
:100DC0008602BBCFEE0FFF1F0590F491E02D099432
:040DD000F894FFCFC5
:100DD4000400320100100C00FC00320000FC320060
:100DE40000000000ED014D017A013A02AB018901D6
:100DF4009D0100000000D402C902E5029F02C20264
:100E0400AF02A0022D2D2D2049324320536C617670
:100E1400652045787031382073706565642076618B
:0E0E24007269616E7473202D2D2D000D0A0071
:00000001FF
