:100000000C948B000C94B3000C94B3000C94B300CC
:100010000C94B3000C94B3000C94B3000C94B30094
:100020000C94B3000C94B3000C94B3000C94B30084
:100030000C94B3000C94B3000C94B3000C94B30074
:100040000C9441040C94B3000C94B1040C948B04F4
:100050000C94B3000C94B3000C94B3000C94B30054
:100060000C94B3000C94B3005B504F5745525D2085
:100070004F4E002020706B74733D002020746F750C
:1000800063683D005B5354415455535D20706F7756
:10009000657265643D0000000000240027002A000E
:1000A0000000000023002600290045787030393A0E
:1000B000206F6E2F6F66662F732F73746174757364
:1000C000005B504F5745525D204F464600000000F0
:1000D00000250028002B0004040404040404040286
:1000E00002020202020303030303030102040810D5
:1000F00020408001020408102001020408102000A2
:1001000000000800020100000304070000000000D6
:1001100000000000E30411241FBECFEFD8E0DEBFD3
:10012000CDBF21E0A2E3B1E001C01D92A53FB2071F
:10013000E1F711E0A0E0B1E0E0EEF3E102C00590EC
:100140000D92A233B107D9F710E0CBE8D0E004C09C
:100150002197FE010E94ED07CA38D107C9F70E9416
:1001600017050C94EE090C940000CF93E091E40184
:10017000F091E5019091E20120E43CE9808189233E
:1001800049F021503109D1F781E08093F00180E0FE
:10019000CF91089520E43CE98081892341F42150E6
:1001A0003109D1F782E08093F0018FEFF1CFA09178
:1001B000EA01B091EB01C091E30180E030E020E082
:1001C00040E45CE96081692341F041505109D1F775
:1001D00083E08093F0018EEFDBCF6C9140E45CE92B
:1001E0007081792341F441505109D1F783E0809324
:1001F000F0018DEFCDCF6C2341E050E009F440E0F9
:10020000022E01C0440F0A94EAF7842B2F5F3F4F60
:1002100028303105A9F662E070E020E43CE9408135
:10022000492359F021503109D1F784E08093F0013E
:100230008CEFAECF61E070E0F0CF20E43CE940818C
:10024000492341F421503109D1F784E08093F00132
:100250008BEF9ECF6130710569F71092F00198CF56
:10026000833081F028F4813099F08230A9F008952C
:100270008730A9F08830C9F08430B1F480918000D3
:100280008F7D03C0809180008F77809380000895D8
:1002900084B58F7784BD089584B58F7DFBCF809121
:1002A000B0008F778093B00008958091B0008F7D6B
:1002B000F9CF1F93CF93DF93E3E0F1E09491EFEE5A
:1002C000F0E0D491EBEDF0E0C491CC23B9F0182F1D
:1002D000992319F0892F0E943001EC2FF0E0EE0FE6
:1002E000FF1FE353FF4FA591B4918FB7F894EC91A2
:1002F000111108C0D095DE23DC938FBFDF91CF9121
:100300001F910895DE2BF8CF3FB7F89480913B0101
:1003100090913C01A0913D01B0913E0126B5A89B72
:1003200005C02F3F19F00196A11DB11D3FBFBA2F87
:10033000A92F982F8827BC01CD01620F711D811D47
:10034000911D43E0660F771F881F991F4A95D1F7CB
:1003500008958F929F92AF92BF92CF92DF92EF92C9
:10036000FF924B015C010E9484016B017C010E94A1
:1003700084016C197D098E099F09683E73408105CF
:100380009105A8F321E0821A9108A108B10888EE2E
:10039000C80E83E0D81EE11CF11C81149104A10455
:1003A000B10429F7FF90EF90DF90CF90BF90AF900E
:1003B0009F908F900895AF92BF92CF92DF92EF926D
:1003C000FF920F931F93CF93DF936C017B018B01FF
:1003D000040F151FEB015E01AE18BF08C017D1074F
:1003E00059F06991D601ED91FC910190F081E02DD9
:1003F000C6010995892B79F7C501DF91CF911F912E
:100400000F91FF90EF90DF90CF90BF90AF90089545
:10041000FC01538D448D252F30E0842F90E0821B0A
:10042000930B541710F0CF96089501970895FC018F
:10043000918D828D981761F0A28DAE0FBF2FB11DE7
:100440005D968C91928D9F5F9F73928F90E008953F
:100450008FEF9FEF08952FB7F89480913F0190910F
:100460004001A0914101B09142012FBF80934B0107
:1004700090934C01A0934D01B0934E0183E491E021
:100480000E94170297FF26C02FB7F89480913F0172
:1004900090914001A0914101B09142012FBF409144
:1004A0004B0150914C0160914D0170914E01841BA4
:1004B000950BA60BB70B40914701509148016091F5
:1004C000490170914A0184179507A607B707B0F252
:1004D0008FEF9FEF0895FC01918D828D981731F079
:1004E000828DE80FF11D858D90E008958FEF9FEFCD
:1004F0000895FC01918D228D892F90E0805C9F4FA3
:10050000821B91098F739927089583E491E00E94DB
:10051000790221E0892B09F420E0822F089580E000
:1005200090E0892B29F00E94850281110C94000033
:100530000895FC01A48DA80FB92FB11DA35ABF4F78
:100540002C91848D90E001968F739927848FA689D2
:10055000B7892C93A089B1898C91837080648C9326
:10056000938D848D981306C00288F389E02D8081D5
:100570008F7D80830895EF92FF920F931F93CF9307
:10058000DF93EC0181E0888F9B8D8C8D98131AC0CE
:10059000E889F989808185FF15C09FB7F894EE89B5
:1005A000FF896083E889F989808183708064808312
:1005B0009FBF81E090E0DF91CF911F910F91FF905D
:1005C000EF900895F62E0B8D10E00F5F1F4F0F7305
:1005D0001127E02E8C8D8E110CC00FB607FCFACFC0
:1005E000E889F989808185FFF5CFCE010E949902C3
:1005F000F1CFEB8DEC0FFD2FF11DE35AFF4FF08291
:100600009FB7F8940B8FEA89FB8980818062CFCFF6
:100610000F931F93CF93DF938C01D0E0C0E0F801DC
:10062000EC0FFD1F6491662341F083E491E00E948A
:10063000BB02892B11F02196F2CFCE01DF91CF9131
:100640001F910F910895CF93DF93EC01888D88233C
:10065000B9F0AA89BB89E889F9898C9185FD03C025
:10066000808186FD0DC00FB607FCF7CF8C9185FF0A
:10067000F2CF808185FFEDCFCE010E949902E9CFB4
:10068000DF91CF910895FC0101900020E9F73197A7
:10069000AF01481B590BBC0183E491E00C94DB01D2
:1006A000CF93DF930E940803EC0189E191E00E945F
:1006B00043038C0F9D1FDF91CF91089581E00E942D
:1006C000590181E08093000188E690E00E94500388
:1006D00064E670E080E090E00C94A9018F929F9214
:1006E000AF92BF920F931F93CF93DF93CDB7DEB737
:1006F000A1970FB6F894DEBF0FBECDBF19A242304E
:1007000008F44AE08E010F5D1F4F842E912CB12C0E
:10071000A12CA50194010E94CB07E62FB901CA01C3
:10072000EA30F4F4E05DD801EE938D01232B242B05
:10073000252B79F790E080E0109719F0CD010E9409
:100740004303A1960FB6F894DEBF0FBECDBFDF9175
:10075000CF911F910F91BF90AF909F908F90089570
:10076000E95CE1CFFC0124813581232B39F421E0C0
:10077000FB018081882349F020E007C080819181BE
:100780000E94DE0921E0892BB9F7822F08950F938B
:100790001F93CF93DF93EC0188819981009759F0E3
:1007A0002A813B812617370730F081E0DF91CF9116
:1007B0001F910F9108958B016F5F7F4F0E94180961
:1007C000009759F0998388831B830A832C813D818C
:1007D000232B59F7FC011082E8CF80E0E7CFCF93BD
:1007E000DF9384E890E00E9408038091000181116A
:1007F00045C08CE191E00E9443038BE790E00E94AA
:100800000803E2E1F1E08491EEEFF0E0D491EAEE4A
:10081000F0E0C491C11103C070E060E013C0811129
:100820000E943001EC2FF0E0EE0FFF1FE056FF4F6B
:10083000A591B491EC91ED2391E080E009F490E072
:10084000692F782F072E000C880B990B4AE00E9425
:100850006E0383E790E00E94080360913601709177
:10086000370180913801909139014AE00E946E036E
:1008700089E191E0DF91CF910C94430380E291E014
:10088000BACF1F920F920FB60F9211242F933F935E
:100890008F939F93AF93BF9380913F0190914001BD
:1008A000A0914101B091420130913A0126E0230F1D
:1008B0002D3758F50296A11DB11D20933A01809362
:1008C0003F0190934001A0934101B0934201809178
:1008D0003B0190913C01A0913D01B0913E010196F8
:1008E000A11DB11D80933B0190933C01A0933D015C
:1008F000B0933E01BF91AF919F918F913F912F9106
:100900000F900FBE0F901F90189529E8230F0396A4
:10091000A11DB11DD2CF1F920F920FB60F921124BD
:100920002F933F934F935F936F937F938F939F93F7
:10093000AF93BF93EF93FF9383E491E00E949902FA
:10094000FF91EF91BF91AF919F918F917F916F91A7
:100950005F914F913F912F910F900FBE0F901F907D
:1009600018951F920F920FB60F9211242F938F9309
:100970009F93EF93FF93E0915301F0915401808195
:10098000E0915901F0915A0182FD1BC09081809144
:100990005C018F5F8F7320915D01821741F0E091C0
:1009A0005C01F0E0ED5BFE4F958F80935C01FF9161
:1009B000EF919F918F912F910F900FBE0F901F90ED
:1009C00018958081F4CFE3E4F1E01382128288EE7F
:1009D00093E0A0E0B0E084839583A683B7838BE0A7
:1009E00091E09183808385EC90E09587848784EC07
:1009F00090E09787868780EC90E0918B808B81ECEC
:100A000090E0938B828B82EC90E0958B848B86ECCC
:100A100090E0978B868B118E128E138E148EE0EEE3
:100A2000F1E087E0808383E08183108A0895CF938B
:100A3000DF93CDB7DEB728970FB6F894DEBF0FBEB1
:100A4000CDBF789484B5826084BD84B5816084BD57
:100A500085B5826085BD85B5816085BD80916E005C
:100A6000816080936E00109281008091810082608D
:100A700080938100809181008160809381008091CA
:100A800080008160809380008091B10084608093B9
:100A9000B1008091B00081608093B00080917A00B5
:100AA000846080937A0080917A00826080937A00DB
:100AB00080917A008E7F80937A0080917A0080689E
:100AC00080937A001092C100EFEEF0E02491EBEDFC
:100AD000F0E08491882399F090E0880F991FFC0141
:100AE000EA56FF4FA591B491FC01E353FF4F859166
:100AF00094918FB7F894EC91E22BEC938FBFEEEFCB
:100B0000F0E02491EAEEF0E084918823C9F090E0CF
:100B1000880F991FFC01EA56FF4F45915491FC0143
:100B2000E353FF4FA591B4919FB7F894FA018081E8
:100B30002095822380838C91E22FE823EC939FBF42
:100B4000E0915301F091540182E08083E0914F01E4
:100B5000F09150011082E0915101F091520189E130
:100B6000808310925B01E0915701F091580186E07B
:100B70008083E0915501F0915601808180618083EE
:100B8000E0915501F0915601808188608083E09169
:100B90005501F0915601808180688083E091550174
:100BA000F091560180818F7D80838AEA90E00E94D7
:100BB00050030E945E032091E00130E0F901E5510D
:100BC000FF4F44914093E2018091E10190E0FC01EC
:100BD000E551FF4FE491E093E30129523F4FF901C2
:100BE000249189529F4FFC01849130E0220F331FE2
:100BF000F901E056FF4F659174917093E5016093A0
:100C0000E401F901EA56FF4FA591B491B093E701D1
:100C1000A093E601F901E353FF4F259134913093FE
:100C2000E9012093E80190E0880F991FFC01E0564C
:100C3000FF4F259134913093EB012093EA01FC01A1
:100C4000EA56FF4F259134913093ED012093EC014A
:100C5000FC01E353FF4F859194919093EF018093B2
:100C6000EE01EC9140954E234C93E091E801F09118
:100C7000E90180819091E201892B8083E091EC0170
:100C8000F091ED0190818091E3018095892380832B
:100C9000E091EE01F091EF0180819091E301892BC9
:100CA000808360ED77E080E090E00E94A90130E071
:100CB000A32E30E0B32E809100018823D9F00E944A
:100CC000B50083FF17C00E94B5000E94B500809157
:100CD000360190913701A0913801B0913901019608
:100CE000A11DB11D8093360190933701A093380167
:100CF000B093390183E491E00E947902892B09F4D1
:100D000065C01A8219821C821B821E821D8270E0BD
:100D100060E0CE0101960E94C70329813A818111CA
:100D20002EC02115310519F0C9010E948F081A82C1
:100D300019821E821D821C821B820E942B020D8141
:100D40001E8197FD24C08A30910509F18F83188692
:100D50000F5F1F4FB801CE0101960E94C703882381
:100D600061F329813A818D819E81BE01695F7F4F48
:100D7000820F931F0E94E7091E830D83DECF1E8220
:100D80001D826BE171E0C9010E94E709D6CFC980DD
:100D9000DA80C114D10429F076010115110509F09A
:100DA00053C08D819E81892B59F063E271E0CE01A1
:100DB00001960E94B203882309F47CC00E945E035E
:100DC00089819A81009711F00E948F082FB7F894BB
:100DD00080913F0190914001A0914101B091420169
:100DE0002FBF4091320150913301609134017091D5
:100DF0003501841B950BA60BB70B803D9740A105D1
:100E0000B105A8F00E94EF032FB7F89480913F013D
:100E100090914001A0914101B09142012FBF809378
:100E2000320190933301A0933401B0933501A114A2
:100E3000B10409F440CF0E948502882309F43BCF16
:100E40000E94000038CF74014701FFEF8F1A9F0AFC
:100E5000F7018081082E000C990B0E948807892BCE
:100E600091F7015011090C0D1D1DF8018081082E0C
:100E7000000C990B0E948807892B31F00E151F0575
:100E800018F001501109F1CFA8014F5F5F4F4E19C3
:100E90005F095E834D83CE14DF0420F4B701C601E1
:100EA0000E94D509E981FA818D819E81E80FF91FA1
:100EB000108277CF66E271E0CE0101960E94B20304
:100EC000882391F080E00E94590110920001109255
:100ED000360110923701109238011092390181ECDD
:100EE00090E00E9450036CCF6FE271E0CE0101965A
:100EF0000E94B203811109C06AE271E0CE0101963D
:100F00000E94B203882309F45BCF0E94EF0358CFFD
:100F100091110C949107803219F089508550C8F7CF
:100F200008959927882708952F923F924F925F92B4
:100F30006F927F928F929F92AF92BF92CF92DF92E9
:100F4000EF92FF920F931F93CF93DF93CDB7DEB74E
:100F5000CA1BDB0B0FB6F894DEBF0FBECDBF0994E2
:100F60002A88398848885F846E847D848C849B8439
:100F7000AA84B984C884DF80EE80FD800C811B8147
:100F8000AA81B981CE0FD11D0FB6F894DEBF0FBE76
:100F9000CDBFED010895A1E21A2EAA1BBB1BFD01D6
:100FA0000DC0AA1FBB1FEE1FFF1FA217B307E40748
:100FB000F50720F0A21BB30BE40BF50B661F771FA0
:100FC000881F991F1A9469F7609570958095909580
:100FD0009B01AC01BD01CF010895EE0FFF1F0590ED
:100FE000F491E02D09940F931F93CF93DF938230F8
:100FF000910510F482E090E0E091F301F091F401AA
:1010000030E020E0B0E0A0E0309799F42115310500
:1010100009F44AC0281B390B24303105D8F58A81E0
:101020009B816115710589F1FB0193838283FE0128
:1010300011C0408151810281138148175907E0F0A6
:101040004817590799F4109761F012960C9312976C
:1010500013961C933296CF01DF91CF911F910F9180
:1010600008950093F3011093F401F4CF2115310595
:1010700051F04217530738F0A901DB019A01BD0175
:10108000DF01F801C1CFEF01F9CF9093F401809314
:10109000F301CDCFFE01E20FF31F81939193225014
:1010A000310939832883D7CF2091F1013091F201A2
:1010B000232B41F420910301309104013093F2017C
:1010C0002093F10120910101309102012115310598
:1010D00041F42DB73EB74091050150910601241B04
:1010E000350BE091F101F091F201E217F307A0F462
:1010F0002E1B3F0B2817390778F0AC014E5F5F4F6E
:101100002417350748F04E0F5F1F5093F2014093AC
:10111000F101819391939FCFF0E0E0E09CCFCF93DA
:10112000DF930097E9F0FC01329713821282A091BD
:10113000F301B091F401ED0130E020E01097A1F44B
:1011400020813181820F931F2091F1013091F201B2
:101150002817390709F061C0F093F201E093F1011B
:10116000DF91CF910895EA01CE17DF07E8F54A81B4
:101170005B819E0141155105B1F7E901FB83EA83CB
:1011800049915991C40FD51FEC17FD0761F4808177
:1011900091810296840F951FE9019983888382814A
:1011A00093819B838A83F0E0E0E012968D919C917D
:1011B00013970097B9F52D913C911197CD010296A7
:1011C000820F931F2091F1013091F2012817390706
:1011D00039F6309751F51092F4011092F301B09363
:1011E000F201A093F101BCCFD383C283408151812E
:1011F000840F951FC817D90761F44E5F5F4F888130
:101200009981480F591F518340838A819B81938321
:1012100082832115310509F0B0CFF093F401E093FA
:10122000F3019ECFFD01DC01C0CF13821282D7CF24
:10123000B0E0A0E0EEE1F9E00C9496078C01009795
:1012400051F4CB010E94F3078C01C801CDB7DEB782
:10125000E0E10C94B207FC01E60FF71F9C0122505D
:101260003109E217F30708F49DC0D901CD91DC9153
:101270001197C617D70798F0C530D10530F3CE01C6
:1012800004978617970708F3C61BD70B2297C193BD
:10129000D1936D937C93CF010E948F08D6CF5B01D1
:1012A000AC1ABD0A4C018C0E9D1EA091F301B091A9
:1012B000F401512C412CF12CE12C109731F5809147
:1012C000F1019091F2018815990509F05CC046166C
:1012D000570608F058C080910101909102010097D3
:1012E00041F48DB79EB74091050150910601841BD2
:1012F000950BE817F90708F055C0F093F201E09359
:10130000F101F90171836083A0CF8D919C911197B8
:1013100012966C90129713967C901397A815B905A6
:1013200059F56C0142E0C40ED11CCA14DB0420F153
:10133000AC014A195B09DA011296159780F06282B6
:10134000738251834083D9016D937C93E114F1043E
:1013500071F0D7011396FC93EE93129776CF2296F5
:101360008C0F9D1FF90191838083F301EFCFF093E0
:10137000F401E093F30169CF4816590608F42C01F3
:101380007D01D3019ACFCB010E94F3077C01009726
:1013900049F0AE01B8010E94D509C8010E948F082A
:1013A000870153CF10E000E050CFFB01DC0102C009
:1013B00001900D9241505040D8F70895FB01DC0197
:1013C0008D91019080190110D9F3990B0895FB01BB
:1013D000DC0101900D920020E1F70895F894FFCF11
:1013E000010000F501800000000000BB02DB0108E5
:1013F000022303790217026B020D0A004F464600D2
:101400004F4E006F6E006F66660073746174757383
:021410000000DA
:00000001FF
