:100000000C948B000C94B3000C94B3000C94B300CC
:100010000C94B3000C94B3000C94B3000C94B30094
:100020000C94B3000C94B3000C94B3000C94B30084
:100030000C94B3000C94B3000C94B3000C94B30074
:100040000C941F040C94B3000C948F040C9469045A
:100050000C94B3000C94B3000C94B3000C94B30054
:100060000C94B3000C94B3005B504F5745525D2085
:100070004F4E0000000000240027002A0045787041
:1000800030393A206F6E2F6F66662F732F7374614D
:10009000747573005B504F5745525D204F464600C4
:1000A000000000002300260029002020706B7473DC
:1000B0003D002020746F7563683D005B53544154CC
:1000C00055535D20706F77657265643D00000000D8
:1000D00000250028002B0004040404040404040286
:1000E00002020202020303030303030102040810D5
:1000F00020408001020408102001020408102000A2
:1001000000000800020100000304070000000000D6
:1001100000000000C10411241FBECFEFD8E0DEBFF5
:10012000CDBF21E0A2E3B1E001C01D92A83FB2071C
:10013000E1F711E0A0E0B1E0E2E1F5E102C00590F5
:100140000D92A233B107D9F710E0CBE8D0E004C09C
:100150002197FE010E948608CA38D107C9F70E947C
:10016000F5040C94870A0C940000CF93E091E7010A
:10017000F091E8019091E50120E43CE98081892338
:1001800049F021503109D1F781E08093F30180E0FB
:10019000CF91089520E43CE98081892341F42150E6
:1001A0003109D1F782E08093F3018FEFF1CFA09175
:1001B000ED01B091EE01C091E60180E030E020E079
:1001C00040E45CE96081692341F041505109D1F775
:1001D00083E08093F3018EEFDBCF6C9140E45CE928
:1001E0007081792341F441505109D1F783E0809324
:1001F000F3018DEFCDCF6C2341E050E009F440E0F6
:10020000022E01C0440F0A94EAF7842B2F5F3F4F60
:1002100028303105A9F662E070E020E43CE9408135
:10022000492359F021503109D1F784E08093F3013B
:100230008CEFAECF61E070E0F0CF20E43CE940818C
:10024000492341F421503109D1F784E08093F3012F
:100250008BEF9ECF6130710569F71092F30198CF53
:10026000833081F028F4813099F08230A9F008952C
:100270008730A9F08830C9F08430B1F480918000D3
:100280008F7D03C0809180008F77809380000895D8
:1002900084B58F7784BD089584B58F7DFBCF809121
:1002A000B0008F778093B00008958091B0008F7D6B
:1002B000F9CF1F93CF93DF93E3E0F1E09491EFEE5A
:1002C000F0E0D491EBEDF0E0C491CC23B9F0182F1D
:1002D000992319F0892F0E943001EC2FF0E0EE0FE6
:1002E000FF1FE353FF4FA591B4918FB7F894EC91A2
:1002F000111108C0D095DE23DC938FBFDF91CF9121
:100300001F910895DE2BF8CF3FB7F89480913E01FE
:1003100090913F01A0914001B091410126B5A89B69
:1003200005C02F3F19F00196A11DB11D3FBFBA2F87
:10033000A92F982F8827BC01CD01620F711D811D47
:10034000911D43E0660F771F881F991F4A95D1F7CB
:1003500008958F929F92AF92BF92CF92DF92EF92C9
:10036000FF924B015C010E9484016B017C010E94A1
:1003700084016C197D098E099F09683E73408105CF
:100380009105A8F321E0821A9108A108B10888EE2E
:10039000C80E83E0D81EE11CF11C81149104A10455
:1003A000B10429F7FF90EF90DF90CF90BF90AF900E
:1003B0009F908F900895AF92BF92CF92DF92EF926D
:1003C000FF920F931F93CF93DF936C017B018B01FF
:1003D000040F151FEB015E01AE18BF08C017D1074F
:1003E00059F06991D601ED91FC910190F081E02DD9
:1003F000C6010995892B79F7C501DF91CF911F912E
:100400000F91FF90EF90DF90CF90BF90AF90089545
:10041000FC01538D448D252F30E0842F90E0821B0A
:10042000930B541710F0CF96089501970895FC018F
:10043000918D828D981761F0A28DAE0FBF2FB11DE7
:100440005D968C91928D9F5F9F73928F90E008953F
:100450008FEF9FEF08952FB7F8948091420190910C
:100460004301A0914401B09145012FBF80934E01FB
:1004700090934F01A0935001B093510186E491E015
:100480000E94170297FF26C02FB7F894809142016F
:1004900090914301A0914401B09145012FBF40913B
:1004A0004E0150914F016091500170915101841B98
:1004B000950BA60BB70B40914A0150914B016091EF
:1004C0004C0170914D0184179507A607B707B0F24C
:1004D0008FEF9FEF0895FC01918D828D981731F079
:1004E000828DE80FF11D858D90E008958FEF9FEFCD
:1004F0000895FC01918D228D892F90E0805C9F4FA3
:10050000821B91098F739927089586E491E00E94D8
:10051000790221E0892B09F420E0822F089580E000
:1005200090E0892B29F00E94850281110C94000033
:100530000895FC01A48DA80FB92FB11DA35ABF4F78
:100540002C91848D90E001968F739927848FA689D2
:10055000B7892C93A089B1898C91837080648C9326
:10056000938D848D981306C00288F389E02D8081D5
:100570008F7D80830895EF92FF920F931F93CF9307
:10058000DF93EC0181E0888F9B8D8C8D98131AC0CE
:10059000E889F989808185FF15C09FB7F894EE89B5
:1005A000FF896083E889F989808183708064808312
:1005B0009FBF81E090E0DF91CF911F910F91FF905D
:1005C000EF900895F62E0B8D10E00F5F1F4F0F7305
:1005D0001127E02E8C8D8E110CC00FB607FCFACFC0
:1005E000E889F989808185FFF5CFCE010E949902C3
:1005F000F1CFEB8DEC0FFD2FF11DE35AFF4FF08291
:100600009FB7F8940B8FEA89FB8980818062CFCFF6
:100610000F931F93CF93DF938C01D0E0C0E0F801DC
:10062000EC0FFD1F6491662341F086E491E00E9487
:10063000BB02892B11F02196F2CFCE01DF91CF9131
:100640001F910F910895CF93DF93EC01888D88233C
:10065000B9F0AA89BB89E889F9898C9185FD03C025
:10066000808186FD0DC00FB607FCF7CF8C9185FF0A
:10067000F2CF808185FFEDCFCE010E949902E9CFB4
:10068000DF91CF910895FC0101900020E9F73197A7
:10069000AF01481B590BBC0186E491E00C94DB01CF
:1006A000CF93DF930E940803EC0189E191E00E945F
:1006B00043038C0F9D1FDF91CF91089581E00E942D
:1006C000590181E08093000188E690E00E94500388
:1006D00064E670E080E090E00C94A9018F929F9214
:1006E000AF92BF920F931F93CF93DF93CDB7DEB737
:1006F000A1970FB6F894DEBF0FBECDBF19A242304E
:1007000008F44AE08E010F5D1F4F842E912CB12C0E
:10071000A12CA50194010E946408E62FB901CA0129
:10072000EA30F4F4E05DD801EE938D01232B242B05
:10073000252B79F790E080E0109719F0CD010E9409
:100740004303A1960FB6F894DEBF0FBECDBFDF9175
:10075000CF911F910F91BF90AF909F908F90089570
:10076000E95CE1CFCF92DF92EF92FF92CF93DF93DC
:100770006C01990FEE08FF08F7FE19C06DE286E4E0
:1007800091E00E94BB02EC0166277727CB016C1930
:100790007D098E099F094AE00E946E038C0F9D1F00
:1007A000DF91CF91FF90EF90DF90CF9008954AE0D6
:1007B000C701B601DF91CF91FF90EF90DF90CF900E
:1007C0000C946E03FC0124813581232B39F421E044
:1007D000FB018081882349F020E007C0808191815E
:1007E0000E94770A21E0892BB9F7822F08950F9391
:1007F0001F93CF93DF93EC0188819981009759F083
:100800002A813B812617370730F081E0DF91CF91B5
:100810001F910F9108958B016F5F7F4F0E94B10967
:10082000009759F0998388831B830A832C813D812B
:10083000232B59F7FC011082E8CF80E0E7CF1F920D
:100840000F920FB60F9211242F933F938F939F9384
:10085000AF93BF938091420190914301A0914401D5
:10086000B091450130913D0126E0230F2D3758F519
:100870000296A11DB11D20933D01809342019093EA
:100880004301A0934401B093450180913E019091B2
:100890003F01A0914001B09141010196A11DB11D00
:1008A00080933E0190933F01A0934001B09341019A
:1008B000BF91AF919F918F913F912F910F900FBE5C
:1008C0000F901F90189529E8230F0396A11DB11DC5
:1008D000D2CF1F920F920FB60F9211242F933F93F6
:1008E0004F935F936F937F938F939F93AF93BF9338
:1008F000EF93FF9386E491E00E949902FF91EF91BC
:10090000BF91AF919F918F917F916F915F914F9127
:100910003F912F910F900FBE0F901F9018951F922F
:100920000F920FB60F9211242F938F939F93EF93F3
:10093000FF93E0915601F09157018081E0915C01B5
:10094000F0915D0182FD1BC0908180915F018F5FFE
:100950008F7320916001821741F0E0915F01F0E018
:10096000EA5BFE4F958F80935F01FF91EF919F911E
:100970008F912F910F900FBE0F901F90189580812F
:10098000F4CFE6E4F1E01382128288EE93E0A0E077
:10099000B0E084839583A683B7838BE091E0918355
:1009A000808385EC90E09587848784EC90E097873E
:1009B000868780EC90E0918B808B81EC90E0938B2C
:1009C000828B82EC90E0958B848B86EC90E0978B09
:1009D000868B118E128E138E148EE3EEF1E083E07F
:1009E000808382E08183108A0895CF93DF93CDB70F
:1009F000DEB728970FB6F894DEBF0FBECDBF789450
:100A000084B5826084BD84B5816084BD85B5826013
:100A100085BD85B5816085BD80916E0081608093C4
:100A20006E0010928100809181008260809381002D
:100A3000809181008160809381008091800081603D
:100A4000809380008091B10084608093B100809198
:100A5000B00081608093B00080917A0084608093C0
:100A60007A0080917A00826080937A0080917A0087
:100A70008E7F80937A0080917A00806880937A00DC
:100A80001092C100EFEEF0E02491EBEDF0E08491E4
:100A9000882399F090E0880F991FFC01ED58FF4FD3
:100AA000A591B491FC01E353FF4F859194918FB7C9
:100AB000F894EC91E22BEC938FBFAEEF4A2EA0E0BE
:100AC0005A2EF2012491BAEE6B2EB0E07B2EF30188
:100AD00084918823C9F090E0880F991FFC01ED589C
:100AE000FF4FA591B491FC01E353FF4F4591549101
:100AF0003FB7F8949C91822F809598239C93FA019C
:100B00009081892380833FBFE0915601F091570186
:100B100082E08083E0915201F09153011082E091D4
:100B20005401F091550189E1808310925E01E091BA
:100B30005A01F0915B0186E08083E0915801F091C9
:100B40005901808180618083E0915801F0915901C1
:100B5000808188608083E0915801F0915901808103
:100B600080688083E0915801F091590180818F7DE8
:100B700080838DE790E00E9450030E945E032091E5
:100B8000E30130E0F901E551FF4F44914093E50165
:100B90008091E40190E0FC01E551FF4FE491E09386
:100BA000E60129523F4FF901249189529F4FFC01E0
:100BB000849130E0220F331FF901E056FF4F659119
:100BC00074917093E8016093E701F901ED58FF4FCC
:100BD000A591B491B093EA01A093E901F901E3531F
:100BE000FF4F259134913093EC012093EB0190E07D
:100BF000880F991FFC01E056FF4F259134913093E7
:100C0000EE012093ED01FC01ED58FF4F2591349149
:100C10003093F0012093EF01FC01E353FF4F8591E6
:100C200094919093F2018093F1018C91E42FE095DF
:100C3000E823EC93E091EB01F091EC01808190913D
:100C4000E501892B8083E091EF01F091F001908123
:100C50008091E601809589238083E091F101F091F4
:100C6000F20180819091E601892B808360ED77E02D
:100C700080E090E00E94A901E2E12E2EE1E03E2E0C
:100C800050E0A52E50E0B52E80910001882309F494
:100C900060C00E94B500F82E83FF5BC0082F10E0F3
:100CA0000E94B500E82E0E94B5002E2D30E0A8016C
:100CB00094E0440F551F9A95E1F744275170241B87
:100CC000350B90E043E0000F111F4A95E1F7002734
:100CD0001170801B910BF6FE04C037FF7FC020E827
:100CE0003FEFF7FE04C097FF7CC080E89FEF2038FD
:100CF000FFEF3F0714F420E83FEF80384FEF9407F1
:100D000014F480E89FEF4091390150913A016091CD
:100D10003B0170913C014F5F5F4F6F4F7F4F40939E
:100D2000390150933A0160933B0170933C012038A4
:100D3000310514F02FE730E0209338018038910519
:100D400014F08FE790E0809337018F2D87708093A8
:100D5000360186E491E00E947902892B09F46BC088
:100D60001A8219821C821B821E821D8270E060E042
:100D7000CE0101960E94F70329813A81811134C086
:100D80002115310519F0C9010E9428091A8219821A
:100D90001E821D821C821B820E942B020D811E81DD
:100DA00097FD2AC08A30910539F18F8318860F5F2D
:100DB0001F4FB801CE0101960E94F703882361F30B
:100DC00029813A818D819E81BE01695F7F4F820FAB
:100DD000931F0E94800A1E830D83DECF2FE730E031
:100DE00080CF8FE790E083CF1E821D826BE171E0A0
:100DF000C9010E94800AD0CFC980DA80C114D10411
:100E000029F076010115110509F075C08D819E81CB
:100E1000892B59F063E271E0CE0101960E94E20352
:100E2000882309F49EC00E945E0389819A810097FD
:100E300011F00E9428092FB7F894809142019091F7
:100E40004301A0914401B09145012FBF409132016F
:100E5000509133016091340170913501841B950BE1
:100E6000A60BB70B843F9140A105B105B8F1809165
:100E70003801082E000C990B0E94B20369E086E449
:100E800091E00E94BB0280913701082E000C990B63
:100E90000E94B20369E086E491E00E94BB02609187
:100EA000360170E090E080E04AE00E946E0389E144
:100EB00091E00E9443032FB7F894809142019091F2
:100EC0004301A0914401B09145012FBF80933201AD
:100ED00090933301A0933401B0933501A114B10470
:100EE00009F4D2CE0E948502882309F4C9CE0E945B
:100EF0000000C6CE740147018FEF881A980AF701E7
:100F00008081082E000C990B0E942108892B91F7F3
:100F1000015011090C0D1D1DF8018081082E000CD7
:100F2000990B0E942108892B31F00E151F0518F02E
:100F300001501109F1CF0F5F1F4FA8014E195F0932
:100F40005E834D83CE14DF0420F4B701C6010E94F6
:100F50006E0AE981FA818D819E81E80FF91F108266
:100F600055CF66E271E0CE0101960E94E20388232C
:100F700091F080E00E945901109200011092390115
:100F800010923A0110923B0110923C0184E990E0EA
:100F90000E9450034ACF6FE271E0CE0101960E9499
:100FA000E203811109C06AE271E0CE0101960E945C
:100FB000E203882309F439CF8BEB90E00E94080309
:100FC0008091000181113AC08CE191E00E944303BD
:100FD00082EB90E00E940803F1018491F2011491E8
:100FE000F3010491011103C080E090E011C0811170
:100FF0000E943001E02FF0E0EE0FFF1FE056FF4FA0
:10100000A591B4918C91182381E090E009F480E0DF
:101010000E94B2038AEA90E00E94080360913901BD
:1010200070913A0180913B0190913C014AE00E940D
:101030006E0389E191E00E944303F7CE80E291E0E4
:10104000C5CF91110C942A08803219F0895085502F
:10105000C8F708959927882708952F923F924F92B5
:101060005F926F927F928F929F92AF92BF92CF9238
:10107000DF92EF92FF920F931F93CF93DF93CDB741
:10108000DEB7CA1BDB0B0FB6F894DEBF0FBECDBFB9
:1010900009942A88398848885F846E847D848C848A
:1010A0009B84AA84B984C884DF80EE80FD800C8193
:1010B0001B81AA81B981CE0FD11D0FB6F894DEBF76
:1010C0000FBECDBFED010895A1E21A2EAA1BBB1BD6
:1010D000FD010DC0AA1FBB1FEE1FFF1FA217B30704
:1010E000E407F50720F0A21BB30BE40BF50B661F1A
:1010F000771F881F991F1A9469F7609570958095DE
:1011000090959B01AC01BD01CF010895EE0FFF1F2B
:101110000590F491E02D09940F931F93CF93DF93E3
:101120008230910510F482E090E0E091F601F091B8
:10113000F70130E020E0B0E0A0E0309799F421150D
:10114000310509F44AC0281B390B24303105D8F584
:101150008A819B816115710589F1FB0193838283EB
:10116000FE0111C040815181028113814817590746
:10117000E0F04817590799F4109761F012960C9314
:10118000129713961C933296CF01DF91CF911F9146
:101190000F9108950093F6011093F701F4CF2115F4
:1011A000310551F04217530738F0A901DB019A01CC
:1011B000BD01DF01F801C1CFEF01F9CF9093F70135
:1011C0008093F601CDCFFE01E20FF31F819391933F
:1011D0002250310939832883D7CF2091F4013091EF
:1011E000F501232B41F42091030130910401309348
:1011F000F5012093F40120910101309102012115A4
:10120000310541F42DB73EB74091050150910601DB
:10121000241B350BE091F401F091F501E217F3077F
:10122000A0F42E1B3F0B2817390778F0AC014E5F56
:101230005F4F2417350748F04E0F5F1F5093F5019D
:101240004093F401819391939FCFF0E0E0E09CCF35
:10125000CF93DF930097E9F0FC013297138212825B
:10126000A091F601B091F701ED0130E020E0109778
:10127000A1F420813181820F931F2091F4013091DC
:10128000F5012817390709F061C0F093F501E093E3
:10129000F401DF91CF910895EA01CE17DF07E8F559
:1012A0004A815B819E0141155105B1F7E901FB833C
:1012B000EA8349915991C40FD51FEC17FD0761F4DA
:1012C000808191810296840F951FE901998388831B
:1012D000828193819B838A83F0E0E0E012968D9176
:1012E0009C9113970097B9F52D913C911197CD01E1
:1012F0000296820F931F2091F4013091F501281777
:10130000390739F6309751F51092F7011092F6012E
:10131000B093F501A093F401BCCFD383C283408185
:101320005181840F951FC817D90761F44E5F5F4F35
:1013300088819981480F591F518340838A819B81FD
:10134000938382832115310509F0B0CFF093F70123
:10135000E093F6019ECFFD01DC01C0CF1382128223
:10136000D7CFB0E0A0E0E7EBF9E00C942F088C01B8
:10137000009751F4CB010E948C088C01C801CDB7B5
:10138000DEB7E0E10C944B08FC01E60FF71F9C016F
:1013900022503109E217F30708F49DC0D901CD911D
:1013A000DC911197C617D70798F0C530D10530F3F7
:1013B000CE0104978617970708F3C61BD70B229711
:1013C000C193D1936D937C93CF010E942809D6CF0E
:1013D0005B01AC1ABD0A4C018C0E9D1EA091F6015A
:1013E000B091F701512C412CF12CE12C109731F5E3
:1013F0008091F4019091F5018815990509F05CC080
:101400004616570608F058C08091010190910201DC
:10141000009741F48DB79EB74091050150910601A8
:10142000841B950BE817F90708F055C0F093F501F8
:10143000E093F401F90171836083A0CF8D919C91B9
:10144000119712966C90129713967C901397A8158B
:10145000B90559F56C0142E0C40ED11CCA14DB0475
:1014600020F1AC014A195B09DA011296159780F058
:101470006282738251834083D9016D937C93E1141E
:10148000F10471F0D7011396FC93EE93129776CF87
:1014900022968C0F9D1FF90191838083F301EFCF7A
:1014A000F093F701E093F60169CF4816590608F466
:1014B0002C017D01D3019ACFCB010E948C087C01C5
:1014C000009749F0AE01B8010E946E0AC8010E945F
:1014D0002809870153CF10E000E050CFFB01DC0169
:1014E00002C001900D9241505040D8F70895FB0181
:1014F000DC018D91019080190110D9F3990B0895A9
:10150000FB01DC0101900D920020E1F70895F894B1
:02151000FFCF0B
:10151200010000F801800000000000BB02DB0108AE
:10152200022303790217026B020D0A004F4646009E
:101532004F4E006F6E006F66660073746174757350
:021542000000A7
:00000001FF
