:100000000C9434000C943E000C943E000C943E0082
:100010000C943E000C943E000C943E000C943E0068
:100020000C943E000C943E000C943E000C943E0058
:100030000C943E000C943E000C943E000C943E0048
:100040000C943E000C943E000C943E000C943E0038
:100050000C943E000C943E000C943E000C943E0028
:100060000C943E000C943E0011241FBECFEFD8E04C
:10007000DEBFCDBF0E9440000C9473000C940000C2
:10008000259A2D9A2FEF80E792E0215080409040F2
:10009000E1F700C000002D982FEF80E792E021509B
:1000A00080409040E1F700C000002D9A2FEF80E7DC
:1000B00092E0215080409040E1F700C000002D9870
:1000C0002FEF80E792E0215080409040E1F700C0A0
:1000D00000002FEF89E698E1215080409040E1F741
:0A00E00000C00000CECFF894FFCF5F
:00000001FF
