:100000000C9462000C9409060C94E2050C948A008E
:100010000C948A000C948A000C9488060C948A0034
:100020000C948A000C948A000C948A000C948A0028
:100030000C948A000C948A000C948A000C948A0018
:100040000C9498050C948A000C9456060C94300677
:100050000C948A000C948A000C948A000C948A00F8
:100060000C949F060C948A00000000080002010016
:100070000003040700000000000000000000000072
:10008000250028002B0000000000240027002A0083
:1000900000000000230026002900040404040404D6
:1000A0000404020202020202030303030303010227
:1000B00004081020408001020408102001020408F6
:1000C0001020BE0711241FBECFEFD8E0DEBFCDBF8A
:1000D00011E0A0E0B1E0EAECF5E102C005900D927C
:1000E000A836B107D9F722E0A8E6B1E001C01D9219
:1000F000A83DB207E1F710E0C2E6D0E004C02197C6
:10010000FE010E94DD0AC136D107C9F70E94FE0731
:100110000C94E30A0C940000CF93DF93A7ECB2E0B9
:100120002C9130E0F901E255FF4F449112964C9327
:10013000129711968C91119790E0FC01E255FF4FB8
:10014000E4911396EC93139726563F4FF9012491AF
:1001500086569F4FFC01849130E0220F331FF90136
:10016000E057FF4F6591749115967C936E931497A9
:10017000F901EA57FF4FC591D4911796DC93CE93BE
:100180001697F901E458FF4F2591349119963C9345
:100190002E93189790E0880F991FFC01E057FF4FAE
:1001A000259134911B963C932E931A97FC01EA57A4
:1001B000FF4F259134911D963C932E931C97FC0183
:1001C000E458FF4F859194911F969C938E931E97B0
:1001D000E88140954E2348831896ED91FC9119973C
:1001E000808112969C911297892B80831C96ED91A9
:1001F000FC911D97908113968C911397809589237C
:1002000080831E96ED91FC911F97808113969C919F
:10021000892B8083DF91CF910895CF93E091CB021A
:10022000F091CC029091C90220E43CE980818923BD
:1002300049F021503109D1F781E08093D70280E065
:10024000CF91089520E43CE98081892341F4215035
:100250003109D1F782E08093D7028FEFF1CFA091DF
:10026000D102B091D202C091CA0280E030E020E019
:1002700040E45CE96081692341F041505109D1F7C4
:1002800083E08093D7028EEFDBCF6C9140E45CE992
:100290007081792341F441505109D1F783E0809373
:1002A000D7028DEFCDCF6C2341E050E009F440E060
:1002B000022E01C0440F0A94EAF7842B2F5F3F4FB0
:1002C00028303105A9F662E070E020E43CE9408185
:1002D000492359F021503109D1F784E08093D702A6
:1002E0008CEFAECF61E070E0F0CF20E43CE94081DC
:1002F000492341F421503109D1F784E08093D7029A
:100300008BEF9ECF6130710569F71092D70298CFBD
:1003100090E0FC01E859FF4F2491FC01E255FF4FAA
:100320003491FC01E656FF4FE491EE23C9F02223FD
:1003300039F0233001F1A8F4213019F1223029F1EC
:10034000F0E0EE0FFF1FE458FF4FA591B4918FB777
:10035000F894EC91611126C030953E233C938FBFF9
:1003600008952730A9F02830C9F0243049F780914A
:1003700080008F7D03C0809180008F778093800004
:10038000DFCF84B58F7784BDDBCF84B58F7DFBCF86
:100390008091B0008F778093B000D2CF8091B00071
:1003A0008F7DF9CF3E2BDACFCF93DF9390E0FC0126
:1003B000E255FF4F249186569F4FFC01849188237C
:1003C000C9F090E0880F991FFC01EA57FF4FA591F3
:1003D000B491FC01E458FF4FC591D49161110DC057
:1003E0009FB7F8948C91209582238C938881282341
:1003F00028839FBFDF91CF910895623051F49FB75A
:10040000F8943C91822F809583238C93E8812E2B46
:10041000EFCF8FB7F894EC912E2B2C938FBFEACFB0
:100420003FB7F89480911A0290911B02A0911C0290
:10043000B0911D0226B5A89B05C02F3F19F001966B
:10044000A11DB11D3FBFBA2FA92F982F8827BC012E
:10045000CD01620F711D811D911D43E0660F771F55
:10046000881F991F4A95D1F708958F929F92AF9256
:10047000BF92CF92DF92EF92FF924B015C010E94FC
:1004800010026B017C010E9410026C197D098E091B
:100490009F09683E734081059105A8F321E0821A07
:1004A0009108A108B10888EEC80E83E0D81EE11CAF
:1004B000F11C81149104A104B10429F7FF90EF907D
:1004C000DF90CF90BF90AF909F908F9008952FB7FF
:1004D000F894609116027091170280911802909121
:1004E00019022FBF08950895E0910002F0910102D2
:1004F000309729F01092FD011092FC0109940895A3
:10050000CF93DF93AC01E0910202F09103023097A8
:10051000F1F09091FF018091FE019817C0F090E0FA
:10052000292F30E02617370754F4D901A859BE4FB8
:10053000240F351FE90128812C939F5FF1CF109282
:10054000FF016093FE01CB01DF91CF910994DF9110
:10055000CF9108950895AF92BF92CF92DF92EF921C
:10056000FF920F931F93CF93DF936C017B018B015D
:10057000040F151FEB015E01AE18BF08C017D107AD
:1005800059F06991D601ED91FC910190F081E02D37
:10059000C6010995892B79F7C501DF91CF911F918C
:1005A0000F91FF90EF90DF90CF90BF90AF900895A4
:1005B000FC01538D448D252F30E0842F90E0821B69
:1005C000930B541710F0CF96089501970895FC01EE
:1005D000918D828D981761F0A28DAE0FBF2FB11D46
:1005E0005D968C91928D9F5F9F73928F90E008959E
:1005F0008FEF9FEF0895FC01918D828D981731F058
:10060000828DE80FF11D858D90E008958FEF9FEFAB
:100610000895FC01918D228D892F90E0805C9F4F81
:10062000821B91098F73992708958EE192E00E94B1
:10063000090321E0892B09F420E0822F089580E04E
:1006400090E0892B29F00E94150381110C94000081
:100650000895FC01A48DA80FB92FB11DA35ABF4F57
:100660002C91848D90E001968F739927848FA689B1
:10067000B7892C93A089B1898C91837080648C9305
:10068000938D848D981306C00288F389E02D8081B4
:100690008F7D80830895EF92FF920F931F93CF93E6
:1006A000DF93EC0181E0888F9B8D8C8D98131AC0AD
:1006B000E889F989808185FF15C09FB7F894EE8994
:1006C000FF896083E889F9898081837080648083F1
:1006D0009FBF81E090E0DF91CF911F910F91FF903C
:1006E000EF900895F62E0B8D10E00F5F1F4F0F73E4
:1006F0001127E02E8C8D8E110CC00FB607FCFACF9F
:10070000E889F989808185FFF5CFCE010E94290310
:10071000F1CFEB8DEC0FFD2FF11DE35AFF4FF0826F
:100720009FB7F8940B8FEA89FB8980818062CFCFD5
:10073000CF93DF93EC01888D8823B9F0AA89BB8918
:10074000E889F9898C9185FD03C0808186FD0DC003
:100750000FB607FCF7CF8C9185FFF2CF808185FF24
:10076000EDCFCE010E942903E9CFDF91CF9108950B
:100770004115510529F4EAE7F0E080818F77808305
:100780006A307105B9F0CB01880F991F880F991F46
:10079000807267706860682B88E10FB6F894A8953E
:1007A000809360000FBE60936000E0E6F0E080811F
:1007B00080648083232BD9F483B7817F846083BFD7
:1007C000F89483B7816083BF85B7806685BF8F7DCE
:1007D00085BF7894889583B78E7F83BF7894452BA7
:1007E00029F4EAE7F0E0808180688083089583B788
:1007F000817F846083BFF89483B7816083BF7894DE
:10080000889583B78E7F83BF7894E9CF2091AE011E
:10081000260F3327331F21323105ECF42091D2010A
:10082000FC0190E080E0243069F082E00895A0911E
:10083000AE012191AC0142575E4FA40FB52FB11DFF
:100840002C930196861798F38091AE01680F609300
:10085000AE0180E0089581E008951092D20181E018
:100860008093D4011092D30161E082E10E9488015B
:1008700061E083E10E948801E9EBF0E080818E7FF6
:10088000808380818D7F808380E28093B80085E4BF
:100890008093BC0008950895E091FF018091FE01CE
:1008A000E81730F4F0E0E859FE4F808190E00895B9
:1008B0008FEF9FEF08959091FF018091FE012FEF40
:1008C0003FEF981748F4E92FF0E0E859FE4F2081F8
:1008D00030E09F5F9093FF01C90108958091FE0170
:1008E0009091FF01891B990B0895CF93DF93CB0162
:1008F000EA01642F0E940604CE01DF91CF91089592
:10090000CF93DF931F92CDB7DEB7698361E0CE014D
:1009100001960E94060481E090E00F90DF91CF9154
:10092000089590E080E008951816190634F48BEBD2
:1009300092E00E945B04809304020895CF93DF93BA
:1009400000D0CDB7DEB7809104028231A1F480914E
:1009500014028983809113028A8342E050E0BE0131
:100960006F5F7F4F8BEB92E00E9475040F900F90AA
:10097000DF91CF91089560E08BEB92E00E948004BC
:10098000F5CFFC0101900020E9F73197AF01481B3A
:10099000590BBC018EE192E00C94AB028F929F92B6
:1009A000AF92BF920F931F93CF93DF93CDB7DEB774
:1009B000A1970FB6F894DEBF0FBECDBF19A242308B
:1009C00008F44AE08E010F5D1F4F842E912CB12C4C
:1009D000A12CA50194010E94BB0AE62FB901CA010E
:1009E000EA30F4F4E05DD801EE938D01232B242B43
:1009F000252B79F790E080E0109719F0CD010E9447
:100A0000C104A1960FB6F894DEBF0FBECDBFDF9133
:100A1000CF911F910F91BF90AF909F908F900895AD
:100A2000E95CE1CFCF92DF92EF92FF92CF93DF9319
:100A30006B017C016DE28EE192E00E944B03EC01C0
:100A400066277727CB016C197D098E099F094AE03B
:100A50000E94CE048C0F9D1FDF91CF91FF90EF90ED
:100A6000DF90CF900895CF93DF930E94C104EC01F3
:100A70008AE291E00E94C1048C0F9D1FDF91CF910B
:100A80000895CF93DF9385ED8093BC0080918A0118
:100A900090918B01A0918C01B0918D010796A11DC1
:100AA000B11D23E0B695A795979587952A95D1F71F
:100AB0002091BC0024FD03C01092D20136C04091A9
:100AC0008A0150918B0160918C0170918D01452BB1
:100AD000462B472B69F30097A105B10541F025E1AD
:100AE0002A95F1F700000197A109B109E1CF8091A2
:100AF000890191E0909388018823B9F0C091B800F2
:100B0000D091BA008091BC008A7B8093BC0060E0E9
:100B100082E10E94880160E083E10E9488010E94D6
:100B20002D04D093BA00C093B800DF91CF910895FF
:100B30001F920F920FB60F9211242F933F938F9312
:100B40009F93AF93BF938091160290911702A0914B
:100B50001802B09119023091150226E0230F2D37AB
:100B600058F50296A11DB11D20931502809316021F
:100B700090931702A0931802B093190280911A0261
:100B800090911B02A0911C02B0911D020196A11D23
:100B9000B11D80931A0290931B02A0931C02B09384
:100BA0001D02BF91AF919F918F913F912F910F9017
:100BB0000FBE0F901F90189529E8230F0396A11DD3
:100BC000B11DD2CF1F920F920FB60F9211242F9307
:100BD0003F934F935F936F937F938F939F93AF93C5
:100BE000BF93EF93FF93E0910201F0910301099508
:100BF000FF91EF91BF91AF919F918F917F916F91F5
:100C00005F914F913F912F910F900FBE0F901F90CA
:100C100018951F920F920FB60F9211242F933F93A6
:100C20004F935F936F937F938F939F93AF93BF93F4
:100C3000EF93FF93E0910001F09101010995FF917D
:100C4000EF91BF91AF919F918F917F916F915F9144
:100C50004F913F912F910F900FBE0F901F901895BD
:100C60001F920F920FB60F9211242F933F934F9321
:100C70005F936F937F938F939F93AF93BF93EF9304
:100C8000FF938EE192E00E942903FF91EF91BF91C3
:100C9000AF919F918F917F916F915F914F913F9114
:100CA0002F910F900FBE0F901F9018951F920F92CB
:100CB0000FB60F9211242F938F939F93EF93FF936F
:100CC000E0912E02F0912F028081E0913402F091A8
:100CD000350282FD1BC09081809137028F5F8F7338
:100CE00020913802821741F0E0913702F0E0E25E95
:100CF000FD4F958F80933702FF91EF919F918F91D8
:100D00002F910F900FBE0F901F9018958081F4CFF8
:100D10001F920F920FB60F9211248F930FB6F89473
:100D2000A8958091600088618093600010926000B7
:100D30000FBE8F910F900FBE0F901F9018951F92AE
:100D40000F920FB60F9211242F933F934F935F93FF
:100D50006F937F938F939F93AF93BF93EF93FF9383
:100D60008091B900887F803609F44AC0F0F5883256
:100D700009F4A7C018F5803109F49BC0B8F48823A2
:100D800009F4F9C0883009F494C0FF91EF91BF9144
:100D9000AF919F918F917F916F915F914F913F9113
:100DA0002F910F900FBE0F901F901895883109F466
:100DB00088C0803251F78093D10114C0803409F487
:100DC0009DC040F48033B9F38833F9F68093D101A4
:100DD00085ECB0C0803509F485C0883509F496C02B
:100DE000883499F60E944105D0CF883909F48CC027
:100DF00038F5883729F050F4883611F0803729F615
:100E000083E08093D2011092D00157C0883809F452
:100E10007BC0803919F0803809F0B7CF8091D001BC
:100E2000803208F071C0E091D00181E08E0F809394
:100E3000D0018091BB00F0E0E055FE4F80833DC0C3
:100E4000803B39F0E0F4803A09F479C0883A09F03F
:100E50009CCF84E08093D2011092AF011092AE013A
:100E6000E091F801F091F90109958091AE018111AD
:100E70000FC081E08093AE0110928E0109C0803CCA
:100E800009F4A6CF883C09F4A3CF883B09F07DCFB5
:100E9000E091AF0181E08E0F8093AF01F0E0E25767
:100EA000FE4F80818093BB009091AF018091AE0195
:100EB00029C08091F7018093BB0085EC8093BC0032
:100EC00064CF9091F6018091F501981758F5E09163
:100ED000F60181E08E0F8093F601F0E0EB52FE4FB9
:100EE0008081E9CFE091F60181E08E0F8093F601D9
:100EF0008091BB00F0E0EB52FE4F80839091F601B1
:100F00008091F5019817C8F285E8D8CFE091F601F5
:100F100081E08E0F8093F6018091BB00F0E0EB52F0
:100F2000FE4F80838091D40181115CCF81E080935A
:100F3000D30184EA8093BC001092D20126CF85ECC5
:100F40008093BC001092D2018091D001803230F4A5
:100F5000E091D001F0E0E055FE4F10826091D001A9
:100F600070E0E091FA01F091FB0180EB91E00995CE
:100F70001092D0010ACF1092D10134CFEEE1F2E00D
:100F80001382128288EE93E0A0E0B0E08483958320
:100F9000A683B7832AE031E03183208325EC30E05B
:100FA0003587248724EC30E03787268720EC30E033
:100FB000318B208B21EC30E0338B228B22EC30E024
:100FC000358B248B26EC30E0378B268B118E128EDE
:100FD000138E148EEBEBF2E01382128284839583DE
:100FE000A683B7838CE191E091838083E7ECF2E004
:100FF00083E0808387E08183108A0895789484B5A4
:10100000826084BD84B5816084BD85B5826085BD04
:1010100085B5816085BD80916E00816080936E0092
:101020001092810080918100826080938100809184
:101030008100816080938100809180008160809335
:1010400080008091B10084608093B1008091B000F5
:1010500081608093B00080917A00846080937A00F0
:1010600080917A00826080937A0080917A008E7FEE
:1010700080937A0080917A00806880937A00109241
:10108000C10061E084E00E94D40161E084E00E943C
:10109000880161E086E00E94D40160E086E00E9461
:1010A000880162E082E00E94D40161E08EE00E944B
:1010B000D40161E08EE00E9488011092FF0110923D
:1010C000FE011092FD011092FC010E942D0484E7A4
:1010D00092E09093F9018093F80180E892E0909378
:1010E000FB018093FA0184E88093BA008EE994E0D2
:1010F000909301028093000284E994E090930302AC
:10110000809302020E948C00E0912E02F0912F0247
:1011100082E08083E0912A02F0912B021082E0911C
:101120002C02F0912D0288E0808310923602E0912B
:101130003202F091330286E08083E0913002F09138
:101140003102808180618083E0913002F091310230
:10115000808188608083E0913002F091310280814B
:1011600080688083E0913002F091310280818F7D30
:1011700080838DE291E00E9433055EE9252E54E0E4
:10118000352E63E7E62E62E0F62E7AEAC72E72E08D
:10119000D72EE4E7AE2EE2E0BE2EF0E88F2EF2E08E
:1011A0009F2E04E914E00E940D01782E83FF5CC09D
:1011B000C82FD0E00E940D01682E0E940D01262D3F
:1011C00030E0AE0194E0440F551F9A95E1F74427B3
:1011D0005170241B350B90E043E0CC0FDD1F4A9586
:1011E000E1F7CC27D1708C1B9D0B76FE04C037FD38
:1011F000B1C02FE730E077FE04C097FDAEC08FE7A7
:1012000090E020384FEF340714F420E83FEF203807
:10121000310514F02FE730E0A90137FF04C044275F
:101220005527421B530B4F375105F4F480384FEFCD
:10123000940714F480E89FEF8038910514F08FE74D
:1012400090E0682FAC0197FF04C044275527481B46
:10125000590B4F37510544F440910501442309F4DB
:101260007FC041504093050180910E02811164C1FD
:101270000E94670240900A0250900B0260900C029C
:1012800070900D0264197509860997096A30710515
:1012900081059105D8F060E08EE00E94880181E030
:1012A00080930E020E941002609306027093070260
:1012B00080930802909309020E94670260930A02D9
:1012C00070930B0280930C0290930D0280910401A5
:1012D0008823B9F00E94670269397A438105910534
:1012E00060F1109204010E94670260930F027093F4
:1012F00010028093110290931202809104018111D7
:101300001CC080910E02811118C040900F025090B5
:101310001002609011027090120241145104610495
:10132000710409F061C00E94670260930F0270931C
:101330001002809311029093120280E090E0892BBA
:1013400009F431CF0E941503882309F42ACF0E94A3
:10135000000027CF20E83FEF4ECF80E89FEF51CF2E
:10136000322F319542E0421B453028F48E5F8530A4
:1013700010F460E030E060931402309313028EE4C6
:1013800091E00E94C10460911402062E000C770BBC
:10139000880B990B97FF20C00E94120581E591E010
:1013A0000E94C10460911302062E000C770B880B7B
:1013B000990B97FF15C00E9412058AE291E00E94E6
:1013C000C10410920F02109210021092110210929A
:1013D00012021092040148CF4AE00E94CE04DECFF0
:1013E0004AE00E94CE04E9CF0E94670264197509A1
:1013F00086099709603D77408105910508F49DCFE6
:1014000060E083E00E94D40160E087E00E94D401A4
:1014100060E084E00E94880161E086E00E9488012B
:1014200062E370E080E090E00E94350285E591E0A3
:101430000E9433058EE192E00E9498036AE070E01A
:1014400080E090E00E94350261E08EE00E94880119
:1014500060E08DE00E9488011092BC00F0920101D2
:10146000E092000180916900836080936900E89AAE
:1014700030E020E050E040E06AE070E085E092E09B
:101480000E94B803E898D0920101C092000161E087
:1014900084E00E94880165E070E080E090E00E94B6
:1014A000350260E086E00E94880168EC70E080E030
:1014B00090E00E9435020E948C001092FF01109271
:1014C000FE011092FD011092FC010E942D04B092C9
:1014D000F901A092F8019092FB018092FA0184E850
:1014E0008093BA003092010220920002109303020E
:1014F000009302021092140210921302109204023E
:1015000095E09093050181E691E00E9433050E94E9
:10151000670260930A0270930B0280930C0290930F
:101520000D0210920E0210920F02109210021092F1
:1015300011021092120201CF0E9410024090060286
:1015400050900702609008027090090264197509B2
:1015500086099709643671058105910508F4B6CEB0
:1015600061E08EE00E948801109214021092130232
:1015700010920E02ABCEA1E21A2EAA1BBB1BFD01DC
:101580000DC0AA1FBB1FEE1FFF1FA217B307E40762
:10159000F50720F0A21BB30BE40BF50B661F771FBA
:1015A000881F991F1A9469F760957095809590959A
:1015B0009B01AC01BD01CF010895EE0FFF1F059007
:0A15C000F491E02D0994F894FFCF98
:1015CA00AA02AA020105000000004B03AB02D802DE
:1015DA0098030903E702FB02000000008004750477
:1015EA0091044B046E045B044C040D0A002D2D2D4E
:1015FA002049324320536C617665202B2050532FAB
:10160A0032202B20536C656570202D2D2D00583A01
:10161A000020593A00536C656570696E672E2E2E4C
:08162A0000576F6B6521000001
:00000001FF
