:100000000C9462000C94A6050C947F050C948A0055
:100010000C948A000C948A000C9425060C948A0097
:100020000C948A000C948A000C948A000C948A0028
:100030000C948A000C948A000C948A000C948A0018
:100040000C9435050C948A000C94F3050C94CD05A2
:100050000C948A000C948A000C948A000C948A00F8
:100060000C943C060C948A00000000080002010079
:100070000003040700000000000000000000000072
:10008000250028002B0000000000240027002A0083
:1000900000000000230026002900040404040404D6
:1000A0000404020202020202030303030303010227
:1000B00004081020408001020408102001020408F6
:1000C00010205B0711241FBECFEFD8E0DEBFCDBFED
:1000D00011E0A0E0B1E0EAE2F4E102C005900D9287
:1000E000A036B107D9F722E0A0E6B1E001C01D9229
:1000F000A13DB207E1F710E0C2E6D0E004C02197CD
:10010000FE010E940D0AC136D107C9F70E949B0764
:100110000C94130A0C940000CF93DF93A0ECB2E090
:100120002C9130E0F901E255FF4F449112964C9327
:10013000129711968C91119790E0FC01E255FF4FB8
:10014000E4911396EC93139726563F4FF9012491AF
:1001500086569F4FFC01849130E0220F331FF90136
:10016000E057FF4F6591749115967C936E931497A9
:10017000F901EA57FF4FC591D4911796DC93CE93BE
:100180001697F901E458FF4F2591349119963C9345
:100190002E93189790E0880F991FFC01E057FF4FAE
:1001A000259134911B963C932E931A97FC01EA57A4
:1001B000FF4F259134911D963C932E931C97FC0183
:1001C000E458FF4F859194911F969C938E931E97B0
:1001D000E88140954E2348831896ED91FC9119973C
:1001E000808112969C911297892B80831C96ED91A9
:1001F000FC911D97908113968C911397809589237C
:1002000080831E96ED91FC911F97808113969C919F
:10021000892B8083DF91CF910895CF93E091C40221
:10022000F091C5029091C20220E43CE980818923CB
:1002300049F021503109D1F781E08093D00280E06C
:10024000CF91089520E43CE98081892341F4215035
:100250003109D1F782E08093D0028FEFF1CFA091E6
:10026000CA02B091CB02C091C30280E030E020E02E
:1002700040E45CE96081692341F041505109D1F7C4
:1002800083E08093D0028EEFDBCF6C9140E45CE999
:100290007081792341F441505109D1F783E0809373
:1002A000D0028DEFCDCF6C2341E050E009F440E067
:1002B000022E01C0440F0A94EAF7842B2F5F3F4FB0
:1002C00028303105A9F662E070E020E43CE9408185
:1002D000492359F021503109D1F784E08093D002AD
:1002E0008CEFAECF61E070E0F0CF20E43CE94081DC
:1002F000492341F421503109D1F784E08093D002A1
:100300008BEF9ECF6130710569F71092D00298CFC4
:1003100090E0FC01E859FF4F2491FC01E255FF4FAA
:100320003491FC01E656FF4FE491EE23C9F02223FD
:1003300039F0233001F1A8F4213019F1223029F1EC
:10034000F0E0EE0FFF1FE458FF4FA591B4918FB777
:10035000F894EC91611126C030953E233C938FBFF9
:1003600008952730A9F02830C9F0243049F780914A
:1003700080008F7D03C0809180008F778093800004
:10038000DFCF84B58F7784BDDBCF84B58F7DFBCF86
:100390008091B0008F778093B000D2CF8091B00071
:1003A0008F7DF9CF3E2BDACFCF93DF9390E0FC0126
:1003B000E255FF4F249186569F4FFC01849188237C
:1003C000C9F090E0880F991FFC01EA57FF4FA591F3
:1003D000B491FC01E458FF4FC591D49161110DC057
:1003E0009FB7F8948C91209582238C938881282341
:1003F00028839FBFDF91CF910895623051F49FB75A
:10040000F8943C91822F809583238C93E8812E2B46
:10041000EFCF8FB7F894EC912E2B2C938FBFEACFB0
:100420003FB7F8948091130290911402A0911502A5
:10043000B091160226B5A89B05C02F3F19F0019672
:10044000A11DB11D3FBFBA2FA92F982F8827BC012E
:10045000CD01620F711D811D911D43E0660F771F55
:10046000881F991F4A95D1F708958F929F92AF9256
:10047000BF92CF92DF92EF92FF924B015C010E94FC
:1004800010026B017C010E9410026C197D098E091B
:100490009F09683E734081059105A8F321E0821A07
:1004A0009108A108B10888EEC80E83E0D81EE11CAF
:1004B000F11C81149104A104B10429F7FF90EF907D
:1004C000DF90CF90BF90AF909F908F9008952FB7FF
:1004D000F89460910F027091100280911102909136
:1004E00012022FBF08950895E091F801F091F901EB
:1004F000309729F01092F5011092F40109940895B3
:10050000CF93DF93AC01E091FA01F091FB013097BA
:10051000F1F09091F7018091F6019817C0F090E00A
:10052000292F30E02617370754F4D901A05ABE4FBF
:10053000240F351FE90128812C939F5FF1CF109282
:10054000F7016093F601CB01DF91CF910994DF9120
:10055000CF9108950895AF92BF92CF92DF92EF921C
:10056000FF920F931F93CF93DF936C017B018B015D
:10057000040F151FEB015E01AE18BF08C017D107AD
:1005800059F06991D601ED91FC910190F081E02D37
:10059000C6010995892B79F7C501DF91CF911F918C
:1005A0000F91FF90EF90DF90CF90BF90AF900895A4
:1005B000FC01538D448D252F30E0842F90E0821B69
:1005C000930B541710F0CF96089501970895FC01EE
:1005D000918D828D981761F0A28DAE0FBF2FB11D46
:1005E0005D968C91928D9F5F9F73928F90E008959E
:1005F0008FEF9FEF0895FC01918D828D981731F058
:10060000828DE80FF11D858D90E008958FEF9FEFAB
:100610000895FC01918D228D892F90E0805C9F4F81
:10062000821B91098F739927089587E192E00E94B8
:10063000090321E0892B09F420E0822F089580E04E
:1006400090E0892B29F00E94150381110C94000081
:100650000895FC01A48DA80FB92FB11DA35ABF4F57
:100660002C91848D90E001968F739927848FA689B1
:10067000B7892C93A089B1898C91837080648C9305
:10068000938D848D981306C00288F389E02D8081B4
:100690008F7D80830895EF92FF920F931F93CF93E6
:1006A000DF93EC0181E0888F9B8D8C8D98131AC0AD
:1006B000E889F989808185FF15C09FB7F894EE8994
:1006C000FF896083E889F9898081837080648083F1
:1006D0009FBF81E090E0DF91CF911F910F91FF903C
:1006E000EF900895F62E0B8D10E00F5F1F4F0F73E4
:1006F0001127E02E8C8D8E110CC00FB607FCFACF9F
:10070000E889F989808185FFF5CFCE010E94290310
:10071000F1CFEB8DEC0FFD2FF11DE35AFF4FF0826F
:100720009FB7F8940B8FEA89FB8980818062CFCFD5
:10073000CF93DF93EC01888D8823B9F0AA89BB8918
:10074000E889F9898C9185FD03C0808186FD0DC003
:100750000FB607FCF7CF8C9185FFF2CF808185FF24
:10076000EDCFCE010E942903E9CFDF91CF9108950B
:100770004115510529F4EAE7F0E080818F77808305
:100780006A307105B9F0CB01880F991F880F991F46
:10079000807267706860682B88E10FB6F894A8953E
:1007A000809360000FBE60936000E0E6F0E080811F
:1007B00080648083232BD9F483B7817F846083BFD7
:1007C000F89483B7816083BF85B7806685BF8F7DCE
:1007D00085BF7894889583B78E7F83BF7894452BA7
:1007E00029F4EAE7F0E0808180688083089583B788
:1007F000817F846083BFF89483B7816083BF7894DE
:10080000889583B78E7F83BF7894E9CF2091A60126
:10081000260F3327331F21323105ECF42091CA0112
:10082000FC0190E080E0243069F082E00895A0911E
:10083000A6012191AC014A575E4FA40FB52FB11DFF
:100840002C930196861798F38091A601680F609308
:10085000A60180E0089581E008951092CA0181E028
:100860008093CC011092CB0161E082E10E9488016B
:1008700061E083E10E948801E9EBF0E080818E7FF6
:10088000808380818D7F808380E28093B80085E4BF
:100890008093BC0008950895E091F7018091F601DE
:1008A000E81730F4F0E0E05AFE4F808190E00895C0
:1008B0008FEF9FEF08959091F7018091F6012FEF50
:1008C0003FEF981748F4E92FF0E0E05AFE4F2081FF
:1008D00030E09F5F9093F701C90108958091F60180
:1008E0009091F701891B990B0895CF93DF93CB016A
:1008F000EA01642F0E940604CE01DF91CF91089592
:10090000CF93DF931F92CDB7DEB7698361E0CE014D
:1009100001960E94060481E090E00F90DF91CF9154
:10092000089590E080E008951816190634F484EBD9
:1009300092E00E945B048093FC010895CF93DF93C3
:1009400000D0CDB7DEB78091FC018231A1F4809157
:100950000C02898380910B028A8342E050E0BE0141
:100960006F5F7F4F84EB92E00E9475040F900F90B1
:10097000DF91CF91089560E084EB92E00E948004C3
:10098000F5CFCF93DF93FC0101900020E9F7319779
:10099000AF01481B590BBC0187E192E00E94AB02FA
:1009A000EC0142E050E069E271E087E192E00E94F0
:1009B000AB028C0F9D1FDF91CF910895CF93DF93F2
:1009C00085ED8093BC008091820190918301A0917C
:1009D0008401B09185010796A11DB11D23E0B69554
:1009E000A795979587952A95D1F72091BC0024FD6E
:1009F00003C01092CA0136C0409182015091830118
:100A00006091840170918501452B462B472B69F33A
:100A10000097A105B10541F025E12A95F1F7000005
:100A20000197A109B109E1CF8091810191E09093F3
:100A300080018823B9F0C091B800D091BA008091AC
:100A4000BC008A7B8093BC0060E082E10E94880148
:100A500060E083E10E9488010E942D04D093BA00D7
:100A6000C093B800DF91CF9108951F920F920FB6F7
:100A70000F9211242F933F938F939F93AF93BF9324
:100A800080910F0290911002A0911102B091120278
:100A900030910E0226E0230F2D3758F50296A11D46
:100AA000B11D20930E0280930F0290931002A09329
:100AB0001102B09312028091130290911402A0913E
:100AC0001502B09116020196A11DB11D809313026B
:100AD00090931402A0931502B0931602BF91AF91A8
:100AE0009F918F913F912F910F900FBE0F901F906C
:100AF000189529E8230F0396A11DB11DD2CF1F928F
:100B00000F920FB60F9211242F933F934F935F9341
:100B10006F937F938F939F93AF93BF93EF93FF93C5
:100B2000E0910201F09103010995FF91EF91BF91CE
:100B3000AF919F918F917F916F915F914F913F9175
:100B40002F910F900FBE0F901F9018951F920F922C
:100B50000FB60F9211242F933F934F935F936F9390
:100B60007F938F939F93AF93BF93EF93FF93E09106
:100B70000001F09101010995FF91EF91BF91AF91B3
:100B80009F918F917F916F915F914F913F912F91A5
:100B90000F900FBE0F901F9018951F920F920FB6D7
:100BA0000F9211242F933F934F935F936F937F93F3
:100BB0008F939F93AF93BF93EF93FF9387E192E05F
:100BC0000E942903FF91EF91BF91AF919F918F9167
:100BD0007F916F915F914F913F912F910F900FBE39
:100BE0000F901F9018951F920F920FB60F9211241D
:100BF0002F938F939F93EF93FF93E0912702F091B0
:100C000028028081E0912D02F0912E0282FD1BC00E
:100C10009081809130028F5F8F7320913102821713
:100C200041F0E0913002F0E0E95EFD4F958F809356
:100C30003002FF91EF919F918F912F910F900FBEF6
:100C40000F901F9018958081F4CF1F920F920FB6CE
:100C50000F9211248F930FB6F894A895809160009D
:100C6000886180936000109260000FBE8F910F909A
:100C70000FBE0F901F9018951F920F920FB60F92F4
:100C800011242F933F934F935F936F937F938F9391
:100C90009F93AF93BF93EF93FF938091B900887FA9
:100CA000803609F44AC0F0F5883209F4A7C018F577
:100CB000803109F49BC0B8F4882309F4F9C0883066
:100CC00009F494C0FF91EF91BF91AF919F918F91E3
:100CD0007F916F915F914F913F912F910F900FBE38
:100CE0000F901F901895883109F488C0803251F711
:100CF0008093C90114C0803409F49DC040F480334E
:100D0000B9F38833F9F68093C90185ECB0C080351A
:100D100009F485C0883509F496C0883499F60E9494
:100D2000DE04D0CF883909F48CC038F5883729F033
:100D300050F4883611F0803729F683E08093CA0199
:100D40001092C80157C0883809F47BC0803919F067
:100D5000803809F0B7CF8091C801803208F071C0A7
:100D6000E091C80181E08E0F8093C8018091BB00A3
:100D7000F0E0E855FE4F80833DC0803B39F0E0F461
:100D8000803A09F479C0883A09F09CCF84E08093D6
:100D9000CA011092A7011092A601E091F001F09112
:100DA000F10109958091A60181110FC081E0809326
:100DB000A6011092860109C0803C09F4A6CF883CA8
:100DC00009F4A3CF883B09F07DCFE091A70181E032
:100DD0008E0F8093A701F0E0EA57FE4F8081809349
:100DE000BB009091A7018091A60129C08091EF01DD
:100DF0008093BB0085EC8093BC0064CF9091EE01A2
:100E00008091ED01981758F5E091EE0181E08E0F89
:100E10008093EE01F0E0E353FE4F8081E9CFE09153
:100E2000EE0181E08E0F8093EE018091BB00F0E037
:100E3000E353FE4F80839091EE018091ED0198176E
:100E4000C8F285E8D8CFE091EE0181E08E0F809363
:100E5000EE018091BB00F0E0E353FE4F8083809170
:100E6000CC0181115CCF81E08093CB0184EA809337
:100E7000BC001092CA0126CF85EC8093BC00109272
:100E8000CA018091C801803230F4E091C801F0E0DD
:100E9000E855FE4F10826091C80170E0E091F201C8
:100EA000F091F30188EA91E009951092C8010ACF08
:100EB0001092C90134CFE7E1F2E01382128288EE8A
:100EC00093E0A0E0B0E084839583A683B78329E014
:100ED00031E03183208325EC30E03587248724EC12
:100EE00030E03787268720EC30E0318B208B21ECF7
:100EF00030E0338B228B22EC30E0358B248B26ECD8
:100F000030E0378B268B118E128E138E148EE4EB0D
:100F1000F2E01382128284839583A683B7838BE1E8
:100F200091E091838083E0ECF2E083E0808387E0CE
:100F30008183108A0895789484B5826084BD84B5D5
:100F4000816084BD85B5826085BD85B5816085BDC4
:100F500080916E00816080936E001092810080917C
:100F60008100826080938100809181008160809304
:100F70008100809180008160809380008091B10029
:100F800084608093B1008091B00081608093B00054
:100F900080917A00846080937A0080917A008260E8
:100FA00080937A0080917A008E7F80937A0080917E
:100FB0007A00806880937A001092C10061E084E03A
:100FC0000E94D40161E084E00E94880161E086E033
:100FD0000E94D40160E086E00E94880162E082E025
:100FE0000E94D40161E08EE00E94D40161E08EE0B5
:100FF0000E9488011092F7011092F6011092F501FB
:101000001092F4010E942D0484E792E09093F10184
:101010008093F00180E892E09093F3018093F201D5
:1010200084E88093BA008EE994E09093F90180936C
:10103000F80184E994E09093FB018093FA010E9407
:101040008C00E0912702F091280282E08083E091F9
:101050002302F09124021082E0912502F0912602F1
:1010600088E0808310922F02E0912B02F0912C02F5
:1010700086E08083E0912902F0912A0280818061DC
:101080008083E0912902F0912A0280818860808328
:10109000E0912902F0912A02808180688083E091AA
:1010A0002902F0912A0280818F7D80838CE291E079
:1010B0000E94C1045EE9252E54E0352E63E7E62E3A
:1010C00062E0F62E7AEAC72E72E0D72EE4E7AE2E63
:1010D000E2E0BE2EF0E88F2EF2E09F2E04E914E04D
:1010E0000E940D01782E83FF3CC0C82FD0E00E94E3
:1010F0000D01682E0E940D01262D30E0AE0194E016
:10110000440F551F9A95E1F744275170241B350B66
:1011100090E043E0CC0FDD1F4A95E1F7CC27D1707A
:101120008C1B9D0B76FE04C037FD90C02FE730E08E
:1011300077FE04C097FD8DC08FE790E020384FEF19
:10114000340714F420E83FEF2038310514F02FE77E
:1011500030E040910D02442309F47EC04150409399
:101160000D0280910602811139C10E9467024090F0
:10117000020250900302609004027090050264190C
:101180007509860997096A30710581059105D8F0BE
:1011900060E08EE00E94880181E0809306020E9458
:1011A00010026093FE017093FF0180930002909300
:1011B00001020E946702609302027093030280930F
:1011C000040290930502809104018823B9F00E94E3
:1011D000670269397A438105910558F1109204013B
:1011E0000E946702609307027093080280930902CD
:1011F00090930A028091040181111BC08091060224
:10120000811117C0409007025090080260900902B7
:1012100070900A024114510461047104C1F50E94E6
:10122000670260930702709308028093090290930B
:101230000A0280E090E0892B09F452CF0E94150346
:10124000882309F44BCF0E94000048CF20E83FEFED
:101250006FCF80E89FEF72CF219520930C028038EA
:101260002FEF920714F480E89FEF8038910514F077
:101270008FE790E080930B02109207021092080211
:101280001092090210920A02109204016ACF0E9481
:1012900067026419750986099709603D77408105E1
:1012A000910538F260E083E00E94D40160E087E0BD
:1012B0000E94D40160E084E00E94880161E086E041
:1012C0000E94880162E370E080E090E00E943502B5
:1012D0008DE491E00E94C10487E192E00E949803AE
:1012E0006AE070E080E090E00E94350261E08EE00C
:1012F0000E94880160E08DE00E9488011092BC008D
:10130000F0920101E0920001809169008360809376
:101310006900E89A30E020E050E040E06AE070E0E8
:101320008DEF91E00E94B803E898D0920101C0923D
:10133000000161E084E00E94880165E070E080E0E7
:1013400090E00E94350260E086E00E94880168EC2F
:1013500070E080E090E00E9435020E948C001092C4
:10136000F7011092F6011092F5011092F4010E941B
:101370002D04B092F101A092F0019092F3018092BD
:10138000F20144E84093BA003092F9012092F8014A
:101390001093FB010093FA0110920C0210920B02C1
:1013A0001092FC0183E080930D0289E591E00E9498
:1013B000C1040E946702609302027093030280934B
:1013C00004029093050210920602109207021092F6
:1013D00008021092090210920A022BCF0E941002FA
:1013E0004090FE015090FF01609000027090010259
:1013F0006419750986099709643671058105910597
:1014000008F4E1CE61E08EE00E94880110920C02A7
:1014100010920B0210920602D6CEEE0FFF1F05901F
:0A142000F491E02D0994F894FFCF39
:10142A00AA02AA0201000000004B03AB02D80298EC
:10143A00030903E702FB020000000080047504911F
:10144A00044B046E045B044C040D0A002D2D2D2060
:10145A0049324320536C617665202B2050532F323A
:10146A00202B20536C656570202D2D2D00536C6543
:10147A006570696E672E2E2E00576F6B652100000E
:00000001FF
