:100000000C9463000C948B000C948B000C942B03C9
:100010000C948B000C948B000C948B000C948B0034
:100020000C948B000C948B000C948B000C948B0024
:100030000C948B000C948B000C948B000C948B0014
:100040000C9489020C9435030C94F9020C94D3029D
:100050000C948B000C948B000C948B000C948B00F4
:100060000C948B000C948B000400640002C8F80010
:100070003200FC64000000080002010000030407D5
:100080000000000000000000000000002500280023
:100090002B0000000000240027002A0004040404B0
:1000A0000404040402020202020203030303030322
:1000B00001020408102040800102040810200102FF
:1000C000040810208F0511241FBECFEFD8E0DEBF3B
:1000D000CDBF11E0A0E0B1E0ECECFBE002C0059088
:1000E0000D92A637B107D9F722E0A6E7B1E001C02B
:1000F0001D92A83BB207E1F710E0C3E6D0E004C0D0
:100100002197FE010E94DE05C236D107C9F70E9481
:1001100090030C94E4050C94000090E0FC01E05581
:10012000FF4F249184569F4FFC018491882399F0BE
:1001300090E0880F991FFC01EE56FF4FA591B491F6
:10014000FC01E857FF4F859194918FB7F894EC919B
:10015000E22BEC938FBF089590E0FC01EC58FF4F29
:100160002491FC01E055FF4F3491FC01E456FF4F10
:10017000E491EE23C9F0222339F0233001F1A8F4F1
:10018000213019F1223029F1F0E0EE0FFF1FE8577E
:10019000FF4FA591B4918FB7F894EC91611126C0EF
:1001A00030953E233C938FBF08952730A9F0283027
:1001B000C9F0243049F7809180008F7D03C0809181
:1001C00080008F7780938000DFCF84B58F7784BDE8
:1001D000DBCF84B58F7DFBCF8091B0008F7780938C
:1001E000B000D2CF8091B0008F7DF9CF3E2BDACF17
:1001F0003FB7F8948091170290911802A0911902CC
:10020000B0911A0226B5A89B05C02F3F19F00196A0
:10021000A11DB11D3FBFBA2FA92F982F8827BC0160
:10022000CD01620F711D811D911D43E0660F771F87
:10023000881F991F4A95D1F70895AF92BF92CF9228
:10024000DF92EF92FF920F931F93CF93DF936C0196
:100250007B018B01040F151FEB015E01AE18BF0877
:10026000C017D10759F06991D601ED91FC91019029
:10027000F081E02DC6010995892B79F7C501DF9141
:10028000CF911F910F91FF90EF90DF90CF90BF9093
:10029000AF900895FC01538D448D252F30E0842FBD
:1002A00090E0821B930B541710F0CF96089501979E
:1002B0000895FC01918D828D981761F0A28DAE0F8B
:1002C000BF2FB11D5D968C91928D9F5F9F73928F12
:1002D00090E008958FEF9FEF0895FC01918D828D3E
:1002E000981731F0828DE80FF11D858D90E008950B
:1002F0008FEF9FEF0895FC01918D228D892F90E063
:10030000805C9F4F821B91098F73992708958BE121
:1003100092E00E947B0121E0892B09F420E0822FEA
:10032000089580E090E0892B29F00E9487018111D7
:100330000C9400000895FC01A48DA80FB92FB11DE5
:10034000A35ABF4F2C91848D90E001968F7399270B
:10035000848FA689B7892C93A089B1898C918370E9
:1003600080648C93938D848D981306C00288F389E2
:10037000E02D80818F7D80830895EF92FF920F930F
:100380001F93CF93DF93EC0181E0888F9B8D8C8D41
:1003900098131AC0E889F989808185FF15C09FB735
:1003A000F894EE89FF896083E889F98980818370F8
:1003B000806480839FBF81E090E0DF91CF911F91A7
:1003C0000F91FF90EF900895F62E0B8D10E00F5FC8
:1003D0001F4F0F731127E02E8C8D8E110CC00FB69E
:1003E00007FCFACFE889F989808185FFF5CFCE0136
:1003F0000E949B01F1CFEB8DEC0FFD2FF11DE35A15
:10040000FF4FF0829FB7F8940B8FEA89FB898081B8
:100410008062CFCFCF93DF93EC01888D8823B9F032
:10042000AA89BB89E889F9898C9185FD03C08081FF
:1004300086FD0DC00FB607FCF7CF8C9185FFF2CF7C
:10044000808185FFEDCFCE010E949B01E9CFDF9136
:10045000CF910895FC0101900020E9F73197AF0199
:10046000481B590BBC018BE192E00C941D018F924B
:100470009F92AF92BF920F931F93CF93DF93CDB70D
:10048000DEB7A1970FB6F894DEBF0FBECDBF19A29D
:10049000423008F44AE08E010F5D1F4F842E912CEC
:1004A000B12CA12CA50194010E94BC05E62FB90135
:1004B000CA01EA30F4F4E05DD801EE938D01232BFC
:1004C000242B252B79F790E080E0109719F0CD01CF
:1004D0000E942A02A1960FB6F894DEBF0FBECDBFD0
:1004E000DF91CF911F910F91BF90AF909F908F9010
:1004F0000895E95CE1CFCF93DF930E942A02EC01DB
:1005000082E191E00E942A028C0F9D1FDF91CF9122
:1005100008951F920F920FB60F9211242F933F93BD
:100520008F939F93AF93BF93809113029091140286
:10053000A0911502B09116023091120226E0230F0D
:100540002D3758F50296A11DB11D209312028093FC
:10055000130290931402A0931502B0931602809197
:10056000170290911802A0911902B0911A020196F7
:10057000A11DB11D8093170290931802A093190238
:10058000B0931A02BF91AF919F918F913F912F919C
:100590000F900FBE0F901F90189529E8230F039618
:1005A000A11DB11DD2CF1F920F920FB60F92112431
:1005B0002F933F934F935F936F937F938F939F936B
:1005C000AF93BF93EF93FF938BE192E00E949B0167
:1005D000FF91EF91BF91AF919F918F917F916F911B
:1005E0005F914F913F912F910F900FBE0F901F90F1
:1005F00018951F920F920FB60F9211242F938F937D
:100600009F93EF93FF93E0912B02F0912C02808156
:10061000E0913102F091320282FD1BC09081809105
:1006200034028F5F8F7320913502821741F0E09181
:100630003402F0E0E55EFD4F958F80933402FF9128
:10064000EF919F918F912F910F900FBE0F901F9060
:1006500018958081F4CF1F920F920FB60F9211243C
:100660000F900FBE0F901F9018951F920F920FB60C
:100670000F9211248F939F93EF93FF938EB59091D8
:1006800004029F5F909304029091F90191112AC096
:10069000E82FEF77E093F801982F90789093F70187
:1006A00087FF05C081E08093F9011EBC0AC0E231DA
:1006B00089F482E08093F9011092F6018091FB01A8
:1006C0008EBDFF91EF919F918F910F900FBE0F9074
:1006D0001F90189581E08093F901F0E0EA58FE4FF1
:1006E0008081EECF913079F49091F701992341F018
:1006F000E091F801F0E0EA58FE4F80831092F70194
:100700001092F901D2CF9230E1F6E091F601EF5F5D
:10071000E093F601E730A0F7F0E0E550FE4FE0CFC0
:10072000789484B5826084BD84B5816084BD85B5CC
:10073000826085BD85B5816085BD80916E008160D8
:1007400080936E001092810080918100826080937E
:100750008100809181008160809381008091800080
:100760008160809380008091B10084608093B100AB
:100770008091B00081608093B00080917A008460A5
:1007800080937A0080917A00826080937A008091D1
:100790007A008E7F80937A0080917A0080688093BF
:1007A0007A001092C1008DE00E948D00C0E06C2F95
:1007B00061708DE00E94AC000E94F8004B015C016A
:1007C00034E6C32ED12CE12CF12C0E94F8006819DC
:1007D00079098A099B09683E734081059105A8F350
:1007E00021E0C21AD108E108F10838EE830E33E0A7
:1007F000931EA11CB11CC114D104E104F10429F71A
:10080000CF5FC630A1F68EE00E948D0061E08EE0E1
:100810000E94AC008CE00E948D008CEC8CBD1EBC54
:100820008091680081608093680080916B00846093
:1008300080936B0081E08093FB0184E08093FC0156
:100840001092FD011092FE011092FF011092000221
:10085000109201021092F901E0912B02F0912C020A
:1008600082E08083E0912702F09128021082E091DB
:100870002902F0912A0288E0808310923302E091ED
:100880002F02F0913002C083E0912D02F0912E02F0
:10089000808180618083E0912D02F0912E02808121
:1008A00088608083E0912D02F0912E028081806823
:1008B0008083E0912D02F0912E0280818F7D8083D4
:1008C00085E191E00E947B0285E391E00E947B023A
:1008D00013E0C0E0D0E0809111028111F7C02FB782
:1008E000F8948091130290911402A0911502B09196
:1008F00016022FBF40910D0250910E0260910F021F
:1009000070911002841B950BA60BB70B4497A105A1
:10091000B10508F4DBC080910202819FC00111245F
:10092000FC01E859FF4F4491FC01E759FF4FE49166
:10093000842F042E000C990B47FD905F2E2F0E2E56
:10094000000C330BE7FD305FF8948093FC0120939B
:10095000FD0124E0969587952A95E1F7807F832B0A
:100960008093FE0181E0411103C0E11101C080E0EC
:100970008093FB0178949091FA019F5F9093FA0124
:1009800080910202819FF0011124E659FF4FE4910A
:100990009E1730F08F5F8370809302021092FA01ED
:1009A00060E08EE00E94AC0081E0809311020E9422
:1009B000F8006093090270930A0280930B029093EF
:1009C0000C022FB7F8948091130290911402A09119
:1009D0001502B09116022FBF80930D0290930E0264
:1009E000A0930F02B09310022FB7F89480911302D6
:1009F00090911402A0911502B09116022FBF409160
:100A00000502509106026091070270910802841B52
:100A1000950BA60BB70B803D9740A105B10508F4D7
:100A20004AC00091040280910302081709F472C0C1
:100A30008BE491E00E942A02602F70E090E080E059
:100A40004AE00E94370287E591E00E942A028091E5
:100A50000302202F281B330B6901032E000CEE0824
:100A6000FF0837FF53C06DE28BE192E00E94BD01A9
:100A700066277727CB016C197D098E099F094AE00B
:100A80000E94370284E791E00E947B0200930302F8
:100A90002FB7F8948091130290911402A09115023F
:100AA000B09116022FBF8093050290930602A09387
:100AB0000702B0930802209709F40DCF0E94870126
:100AC000882309F408CF0E94000005CF809111020D
:100AD000882309F489CF0E94F800C0900902D090C1
:100AE0000A02E0900B02F0900C026C197D098E094D
:100AF0009F09643671058105910508F475CF61E0A1
:100B00008EE00E94AC00109211026ECF4AE0C70145
:100B1000B601B6CF8BE591E00E947B02B9CFEBE145
:100B2000F2E01382128288EE93E0A0E0B0E08483CA
:100B30009583A683B78384E091E09183808385ECDD
:100B400090E09587848784EC90E09787868780EC97
:100B500090E0918B808B81EC90E0938B828B82EC88
:100B600090E0958B848B86EC90E0978B868B118E32
:100B7000128E138E148E0895A1E21A2EAA1BBB1B8F
:100B8000FD010DC0AA1FBB1FEE1FFF1FA217B30759
:100B9000E407F50720F0A21BB30BE40BF50B661F6F
:100BA000771F881F991F1A9469F760957095809533
:100BB00090959B01AC01BD01CF010895EE0FFF1F81
:0C0BC0000590F491E02D0994F894FFCF0B
:100BCC0000000000BD011D014A010A027B01590110
:100BDC006D010D0A002D2D2D20504D57333631301F
:100BEC0020656D756C61746F722045787031366755
:100BFC00202D2D2D005261772064656C7461732C4F
:100C0C0020353020487A204D4F54005350492062F3
:100C1C00797465733A200020282B005350492062C8
:100C2C00797465733A203020286E6F206163746983
:060C3C00766974792900BD
:00000001FF
