:100000000C9462000C948A000C948A000C948A0070
:100010000C948A000C948A000C94F1050C948A00CC
:100020000C948A000C948A000C948A000C948A0028
:100030000C948A000C948A000C948A000C948A0018
:100040000C944F050C948A000C94BF050C949905F0
:100050000C948A000C948A000C948A000C948A00F8
:100060000C9408060C948A0000000000230026006F
:10007000290000000000240027002A0000000000E2
:10008000250028002B0004040404040404040202D4
:100090000202020203030303030301020408102007
:1000A0004080010204081020010204081020000012
:1000B0000008000201000003040700000000000027
:1000C0000000270711241FBECFEFD8E0DEBFCDBF51
:1000D00011E0A0E0B1E0EEEEF6E102C005900D9275
:1000E000A237B107D9F722E0A2E7B1E001C01D9223
:1000F000AF3EB207E1F710E0C2E6D0E004C02197BE
:10010000FE010E946F0BC136D107C9F70E94670735
:100110000C94750B0C940000CF93E091E202F091E7
:10012000E3029091E00220E43CE98081892349F0D8
:1001300021503109D1F781E08093EE0280E0CF9128
:10014000089520E43CE98081892341F4215031095C
:10015000D1F782E08093EE028FEFF1CFA091E80219
:10016000B091E902C091E10280E030E020E040E49B
:100170005CE96081692341F041505109D1F783E086
:100180008093EE028EEFDBCF6C9140E45CE97081EE
:10019000792341F441505109D1F783E08093EE0275
:1001A0008DEFCDCF6C2341E050E009F440E0022E0A
:1001B00001C0440F0A94EAF7842B2F5F3F4F283089
:1001C0003105A9F662E070E020E43CE94081492372
:1001D00059F021503109D1F784E08093EE028CEF81
:1001E000AECF61E070E0F0CF20E43CE940814923EC
:1001F00041F421503109D1F784E08093EE028BEF76
:100200009ECF6130710569F71092EE0298CFAF92E0
:10021000BF92CF92DF92EF92FF920F931F93CF93F3
:10022000DF937C018B01EA010E948C00D82E80E0D4
:10023000D3FE48C0AD2CB12C0E948C00C82E0E9469
:100240008C002C2D30E0A50194E0440F551F9A95A9
:10025000E1F744275170241B350B90E043E0AA0CD2
:10026000BB1C4A95E1F7AA2441E0B4228A199B09F4
:10027000D6FE04C037FD31C02FE730E0D7FE04C002
:1002800097FD2EC08FE790E02038EFEF3E0714F483
:1002900020E83FEF8038FFEF9F0714F480E89FEFDE
:1002A0002038310514F02FE730E0F7012083803843
:1002B000910514F08FE790E0F80180838D2D877011
:1002C000888381E0DF91CF911F910F91FF90EF9094
:1002D000DF90CF90BF90AF90089520E83FEFCECF52
:1002E00080E89FEFD1CF90E0FC01E255FF4F2491D1
:1002F000FC01E656FF4F3491FC01EA57FF4FE491B1
:10030000EE23C9F0222339F0233001F1A8F4213083
:1003100019F1223029F1F0E0EE0FFF1FE458FF4FF2
:10032000A591B4918FB7F894EC91611126C03095E6
:100330003E233C938FBF08952730A9F02830C9F0A1
:10034000243049F7809180008F7D03C08091800028
:100350008F7780938000DFCF84B58F7784BDDBCF2C
:1003600084B58F7DFBCF8091B0008F778093B000F4
:10037000D2CF8091B0008F7DF9CF3E2BDACFCF93D3
:10038000DF9390E0FC01E656FF4F24918A579F4F80
:10039000FC0184918823D1F090E0880F991FFC0123
:1003A000EE58FF4FA591B491FC01E458FF4FC59161
:1003B000D491623071F49FB7F8943C91822F80956C
:1003C00083238C93E8812E2B28839FBFDF91CF91CD
:1003D00008958FB7F894EC912E2B2C938FBFF6CF06
:1003E0002FB7F894609131027091320280913302FC
:1003F000909134022FBF0895E0910B02F0910C020E
:10040000309729F01092080210920702099408957B
:10041000CF93DF93AC01E0910D02F0910E02309783
:10042000F1F090910A02809109029817C0F090E0D3
:10043000292F30E02617370754F4D901AD58BE4FA5
:10044000240F351FE90128812C939F5FF1CF109273
:100450000A0260930902CB01DF91CF910994DF91E9
:10046000CF910895AF92BF92CF92DF92EF92FF9219
:100470000F931F93CF93DF936C017B018B01040FCC
:10048000151FEB015E01AE18BF08C017D10759F068
:100490006991D601ED91FC910190F081E02DC601AA
:1004A0000995892B79F7C501DF91CF911F910F91A4
:1004B000FF90EF90DF90CF90BF90AF900895FC0138
:1004C000538D448D252F30E0842F90E0821B930BB9
:1004D000541710F0CF96089501970895FC01918D5F
:1004E000828D981761F0A28DAE0FBF2FB11D5D9662
:1004F0008C91928D9F5F9F73928F90E008958FEF04
:100500009FEF0895FC01918D828D981731F0828DB7
:10051000E80FF11D858D90E008958FEF9FEF08950E
:10052000FC01918D228D892F90E0805C9F4F821B72
:1005300091098F739927089585E392E00E949002B4
:1005400021E0892B09F420E0822F089580E090E0DB
:10055000892B29F00E949C0281110C9400000895BF
:10056000FC01A48DA80FB92FB11DA35ABF4F2C9128
:10057000848D90E001968F739927848FA689B7891F
:100580002C93A089B1898C91837080648C93938D16
:10059000848D981306C00288F389E02D80818F7DB9
:1005A00080830895EF92FF920F931F93CF93DF9371
:1005B000EC0181E0888F9B8D8C8D98131AC0E8899F
:1005C000F989808185FF15C09FB7F894EE89FF896E
:1005D0006083E889F98980818370806480839FBF0C
:1005E00081E090E0DF91CF911F910F91FF90EF900C
:1005F0000895F62E0B8D10E00F5F1F4F0F7311271C
:10060000E02E8C8D8E110CC00FB607FCFACFE88956
:10061000F989808185FFF5CFCE010E94B002F1CF2C
:10062000EB8DEC0FFD2FF11DE35AFF4FF0829FB7CA
:10063000F8940B8FEA89FB8980818062CFCFCF93BA
:10064000DF93EC01888D8823B9F0AA89BB89E889FA
:10065000F9898C9185FD03C0808186FD0DC00FB6A0
:1006600007FCF7CF8C9185FFF2CF808185FFEDCF1E
:10067000CE010E94B002E9CFDF91CF9108954115DC
:10068000510529F4EAE7F0E080818F7780836A30B2
:100690007105B9F0CB01880F991F880F991F8072DF
:1006A00067706860682B88E10FB6F894A89580930E
:1006B00060000FBE60936000E0E6F0E0808180643F
:1006C0008083232BD9F483B7817F846083BFF89420
:1006D00083B7816083BF85B7806685BF8F7D85BF07
:1006E0007894889583B78E7F83BF7894452B29F4BF
:1006F000EAE7F0E0808180688083089583B7817F96
:10070000846083BFF89483B7816083BF78948895B1
:1007100083B78E7F83BF7894E9CF2091B901260FEC
:100720003327331F21323105ECF42091DD01FC0128
:1007300090E080E0243069F082E00895A091B90152
:100740002191AC0147565E4FA40FB52FB11D2C93DC
:100750000196861798F38091B901680F6093B901EB
:1007600080E0089581E008951092DD0181E080939A
:10077000DF011092DE0161E082E10E94730161E01D
:1007800083E10E947301E9EBF0E080818E7F80833A
:1007900080818D7F808380E28093B80085E48093A0
:1007A000BC0008950895E0910A0280910902E817BB
:1007B00030F4F0E0ED58FE4F808190E008958FEF27
:1007C0009FEF089590910A02809109022FEF3FEF69
:1007D000981748F4E92FF0E0ED58FE4F208130E003
:1007E0009F5F90930A02C901089580910902909138
:1007F0000A02891B990B0895CF93DF93CB01EA017D
:10080000642F0E948D03CE01DF91CF910895CF9385
:10081000DF931F92CDB7DEB7698361E0CE01019609
:100820000E948D0381E090E00F90DF91CF910895B9
:1008300090E080E0089560E08EE00E94730184EC17
:1008400090E00197F1F761E08EE00C9473011816C7
:10085000190634F482ED92E00E94E2038093720163
:100860000895CF93DF9300D0CDB7DEB780917201AA
:100870008231A1F4809116028983809115028A83C6
:1008800042E050E0BE016F5F7F4F82ED92E00E9438
:10089000FC030F900F90DF91CF91089560E082EDFF
:1008A00092E00E940704F5CFFC0101900020E9F7D7
:1008B0003197AF01481B590BBC0185E392E00C94C2
:1008C00032028F929F92AF92BF920F931F93CF935A
:1008D000DF93CDB7DEB7A1970FB6F894DEBF0FBE9A
:1008E000CDBF19A2423008F44AE08E010F5D1F4FC0
:1008F000842E912CB12CA12CA50194010E942E0BC9
:10090000E62FB901CA01EA30F4F4E05DD801EE93B4
:100910008D01232B242B252B79F790E080E0109775
:1009200019F0CD010E945404A1960FB6F894DEBFD1
:100930000FBECDBFDF91CF911F910F91BF90AF90B0
:100940009F908F900895E95CE1CFCF92DF92EF9274
:10095000FF92CF93DF936B017C016DE285E392E020
:100960000E94D202EC0166277727CB016C197D0922
:100970008E099F094AE00E9461048C0F9D1FDF9140
:10098000CF91FF90EF90DF90CF900895CF93DF93BA
:100990000E945404EC0184E291E00E9454048C0F04
:1009A0009D1FDF91CF910895CF93DF939C01BC01F0
:1009B000990F880B990B37FF0CC00E94A504EC011E
:1009C00084E291E00E9454048C0F9D1FDF91CF912F
:1009D00008954AE00E946104F2CF9C01BC01990F86
:1009E000880B990B37FD0C94A5044AE00C94610424
:1009F000CF93DF9385ED8093BC008091950190911A
:100A00009601A0919701B09198010796A11DB11D83
:100A100023E0B695A795979587952A95D1F72091CC
:100A2000BC0024FD03C01092DD0136C04091950149
:100A3000509196016091970170919801452B462B3A
:100A4000472B69F30097A105B10541F025E12A95EF
:100A5000F1F700000197A109B109E1CF809194015C
:100A600091E0909393018823B9F0C091B800D091A0
:100A7000BA008091BC008A7B8093BC0060E082E178
:100A80000E94730160E083E10E9473010E94B4033D
:100A9000D093BA00C093B800DF91CF9108951F9210
:100AA0000F920FB60F9211242F933F938F939F9322
:100AB000AF93BF938091310290913202A0913302A3
:100AC000B09134023091300226E0230F2D3758F5D3
:100AD0000296A11DB11D20933002809331029093A4
:100AE0003202A0933302B093340280912C02909191
:100AF0002D02A0912E02B0912F020196A11DB11DD1
:100B000080932C0290932D02A0932E02B0932F027B
:100B1000BF91AF919F918F913F912F910F900FBEF9
:100B20000F901F90189529E8230F0396A11DB11D62
:100B3000D2CF1F920F920FB60F9211242F933F9393
:100B40004F935F936F937F938F939F93AF93BF93D5
:100B5000EF93FF9385E392E00E94B002FF91EF9143
:100B6000BF91AF919F918F917F916F915F914F91C5
:100B70003F912F910F900FBE0F901F9018951F92CD
:100B80000F920FB60F9211242F938F939F93EF9391
:100B9000FF93E0914502F09146028081E0914B0283
:100BA000F0914C0282FD1BC0908180914E028F5FBC
:100BB0008F7320914F02821741F0E0914E02F0E0D6
:100BC000EB5CFD4F958F80934E02FF91EF919F91CB
:100BD0008F912F910F900FBE0F901F9018958081CD
:100BE000F4CF1F920F920FB60F9211248F930FB66E
:100BF000F894A895809160008861809360001092BD
:100C000060000FBE8F910F900FBE0F901F90189530
:100C10001F920F920FB60F9211242F933F934F9371
:100C20005F936F937F938F939F93AF93BF93EF9354
:100C3000FF938091B900887F803609F44AC0F0F5AF
:100C4000883209F4A7C018F5803109F49BC0B8F4C4
:100C5000882309F4F9C0883009F494C0FF91EF911A
:100C6000BF91AF919F918F917F916F915F914F91C4
:100C70003F912F910F900FBE0F901F9018958831C4
:100C800009F488C0803251F78093DC0114C08034AD
:100C900009F49DC040F48033B9F38833F9F68093AA
:100CA000DC0185ECB0C0803509F485C0883509F4D5
:100CB00096C0883499F60E94F804D0CF883909F498
:100CC0008CC038F5883729F050F4883611F0803719
:100CD00029F683E08093DD011092DB0157C088384C
:100CE00009F47BC0803919F0803809F0B7CF8091C2
:100CF000DB01803208F071C0E091DB0181E08E0FF2
:100D00008093DB018091BB00F0E0E554FE4F8083CF
:100D10003DC0803B39F0E0F4803A09F479C0883A6C
:100D200009F09CCF84E08093DD011092BA0110920B
:100D3000B901E0910302F091040209958091B90193
:100D400081110FC081E08093B9011092990109C00F
:100D5000803C09F4A6CF883C09F4A3CF883B09F076
:100D60007DCFE091BA0181E08E0F8093BA01F0E06F
:100D7000E756FE4F80818093BB009091BA0180912D
:100D8000B90129C0809102028093BB0085EC809359
:100D9000BC0064CF9091010280910002981758F531
:100DA000E091010281E08E0F80930102F0E0E052B9
:100DB000FE4F8081E9CFE091010281E08E0F8093A8
:100DC00001028091BB00F0E0E052FE4F80839091E1
:100DD0000102809100029817C8F285E8D8CFE0910F
:100DE000010281E08E0F809301028091BB00F0E050
:100DF000E052FE4F80838091DF0181115CCF81E062
:100E00008093DE0184EA8093BC001092DD0126CF3E
:100E100085EC8093BC001092DD018091DB01803273
:100E200030F4E091DB01F0E0E554FE4F1082609178
:100E3000DB0170E0E0910502F09106028BEB91E09E
:100E400009951092DB010ACF1092DC0134CFE5E363
:100E5000F2E01382128288EE93E0A0E0B0E0848397
:100E60009583A683B78324E031E03183208325EC8A
:100E700030E03587248724EC30E03787268720EC64
:100E800030E0318B208B21EC30E0338B228B22EC55
:100E900030E0358B248B26EC30E0378B268B118E9F
:100EA000128E138E148EE2EDF2E01382128284838E
:100EB0009583A683B78386E191E091838083EEEDED
:100EC000F2E082E0808383E08183108A0895CF93EB
:100ED000DF9300D01F92CDB7DEB7789484B58260DF
:100EE00084BD84B5816084BD85B5826085BD85B5CE
:100EF000816085BD80916E00816080936E0010924C
:100F000081008091810082608093810080918100C6
:100F10008160809381008091800081608093800057
:100F20008091B10084608093B1008091B0008160B5
:100F30008093B00080917A00846080937A008091E1
:100F40007A00826080937A0080917A008E7F80930D
:100F50007A0080917A00806880937A001092C100B4
:100F600061E084E00E94BF0161E084E00E947301BF
:100F700061E086E00E94BF0160E086E00E947301AC
:100F800061E08EE00E94BF0161E08EE00E9473018B
:100F900010920A021092090210920802109207029F
:100FA0000E94B4038CEF91E09093040280930302BB
:100FB00088E092E0909306028093050284E8809393
:100FC000BA0081E394E090930C0280930B0287E2D5
:100FD00094E090930E0280930D022091DE0230E0A7
:100FE000F901E656FF4F44914093E0028091DF0201
:100FF00090E0FC01E656FF4FE491E093E1022A57AE
:101000003F4FF90124918A579F4FFC01849130E0B2
:10101000220F331FF901E859FF4F659174917093C6
:10102000E3026093E202F901EE58FF4FA591B491FB
:10103000B093E502A093E402F901E458FF4F259133
:1010400034913093E7022093E60290E0880F991FD5
:10105000FC01E859FF4F259134913093E902209328
:10106000E802FC01EE58FF4F259134913093EB02DA
:101070002093EA02FC01E458FF4F859194919093EC
:10108000ED028093EC02EC9140954E234C93E0915D
:10109000E602F091E70280819091E002892B808343
:1010A000E091EA02F091EB0290818091E10280955B
:1010B00089238083E091EC02F091ED028081909190
:1010C000E102892B8083E0914502F091460282E0A3
:1010D0008083E0914102F09142021082E09143024C
:1010E000F091440288E0808310924D02E091490221
:1010F000F0914A0286E08083E0914702F091480235
:10110000808180618083E0914702F0914802808174
:1011100088608083E0914702F09148028081806876
:101120008083E0914702F091480280818F7D808327
:1011300087E291E00E94C6040E94F00160931002D1
:1011400070931102809312029093130207E214E04D
:101150007CEFE72E71E0F72EE8E0CE2EE2E0DE2E07
:10116000F1E3AF2EF4E0BF2E7724739490E0892E44
:1011700090E0992E0E94F0012091280230912902DE
:1011800040912A0250912B021B012C01221A330A92
:10119000440A550AA2019101243131054105510546
:1011A00008F46FC0609328027093290280932A028A
:1011B00090932B02AE014F5F5F4FBE016E5F7F4F7A
:1011C000CE0103960E940701882309F45AC00E94A9
:1011D000F00160932402709325028093260290937D
:1011E000270280912302811129C00E94F0012090E2
:1011F00021023090220221143104F1F0512C412CB3
:1012000060911D0270911E0280911F029091200238
:10121000A20191010E94500B20931C0260911802C0
:101220007091190280911A0290911B02A201910102
:101230000E94500B20931702709223028091230288
:101240008823F9F08B81282F082E000C330B37FFF1
:1012500003C03195219531092A31310574F44A8151
:10126000242F042E000C330B37FF03C0319521953A
:1012700031092A3131050CF461C110921602109225
:10128000150280911602811104C0809115028823F5
:1012900009F10E94F0012091240230912502409131
:1012A000260250912702621B730B840B950B653647
:1012B00071058105910570F01092160210921502C9
:1012C00080911402882331F08AE591E00E94C604DF
:1012D000109214020E94F00120911002309111022C
:1012E0004091120250911302621B730B840B950BF9
:1012F000683E73408105910508F414C18CE591E0C6
:101300000E94C60485E392E00E941F0361E082E030
:101310000E94BF0160E082E00E9473011092BC0055
:1013200084E8682E30E020E050E040E062E070E0C9
:101330008FE092E00E943F0310920A02109209028D
:1013400010920802109207020E94B403F092040265
:10135000E0920302D0920602C09205026092BA00A7
:10136000B0920C02A0920B0210930E0200930D0299
:1013700062E082E00E94BF01AE014F5F5F4FBE019D
:101380006E5F7F4FCE0103960E940701882309F408
:101390005AC180912302811129C00E94F00120903E
:1013A00021023090220221143104F1F0512C412C01
:1013B00060911D0270911E0280911F029091200287
:1013C000A20191010E94500B20931C02609118020F
:1013D0007091190280911A0290911B02A201910151
:1013E0000E94500B209317027092230280912302D7
:1013F000882309F428C12B8186EE820F8D3C08F4E6
:1014000022C18A8196EE980F9D3C08F41CC1022EE1
:10141000000C330B440B550B20901C02022C000CCB
:101420003308440855082219330944095509082E80
:10143000000C990BAA0BBB0B20901702022C000C7E
:1014400033084408550882199309A409B5092038BE
:10145000FFEF3F074F075F070CF4EDC02038310561
:10146000410551050CF0E9C02B8380383FEF93070D
:10147000A307B3070CF4E3C080389105A105B105BB
:101480000CF0DFC08A83422F022E000C550B57FF51
:1014900003C0519541955109443051056CF4482FD2
:1014A000082E000C550B57FF03C05195419551096B
:1014B000443051050CF4C7C02093160280931502E6
:1014C00088E691E00E94540480911602082E000CD8
:1014D000990B0E94ED0488E591E00E9454048091EC
:1014E0001502082E000C990B0E94D404709214026D
:1014F0000E941B040E94F00160931002709311027D
:1015000080931202909313020E94F00160932402D0
:101510007093250280932602909327028BE691E038
:101520000E94C6048114910409F424CE0E949C02F6
:10153000882309F419CE0E94000016CE082E000C54
:10154000990BAA0BBB0B20901C02022C000C330839
:101550004408550882199309A409B509042E000C02
:10156000550B660B770B20901702022C000C3308EA
:1015700044085508421953096409750980382FEF4A
:101580009207A207B2070CF44EC080389105A1055E
:10159000B1050CF04AC08B8340383FEF5307630717
:1015A00073070CF444C040385105610571050CF017
:1015B00040C04A838093160240931502082E000C07
:1015C000990B9C0197FF04C022273327281B390B56
:1015D0002430310564F4042E000C550B57FF03C072
:1015E000519541955109443051050CF44ACE0E9461
:1015F000ED0488E591E00E94540480911502082EC4
:10160000000C990B0E94D404709214020E941B04D7
:101610000E94F001609310027093110280931202F5
:10162000909313022ECE80E8B6CF8FE7B4CF40E878
:10163000C0CF4FE7BECF20E817CF2FE715CF80E808
:1016400021CF8FE71FCF1092BC0061E082E00E94A3
:10165000BF0160E082E00E94730164CEA1E21A2E15
:10166000AA1BBB1BFD010DC0AA1FBB1FEE1FFF1F46
:10167000A217B307E407F50720F0A21BB30BE40B96
:10168000F50B661F771F881F991F1A9469F76095DD
:101690007095809590959B01AC01BD01CF01089597
:1016A000052E97FB1EF400940E94670B57FD07D090
:1016B0000E942E0B07FC03D04EF40C94670B509540
:1016C0004095309521953F4F4F4F5F4F089590952E
:1016D0008095709561957F4F8F4F9F4F0895EE0FC6
:0E16E000FF1F0590F491E02D0994F894FFCFC0
:1016EE0000000000D20232025F021F0390026E025F
:1016FE008202000000000704FC031804D203F50365
:10170E00E203D3030D0A002D2D2D20493243205321
:10171E006C617665202B2050532F32202B20434CAA
:10172E004B2D696E68696269742057445420536C5E
:10173E00656570202D2D2D002C003000536C6565D5
:10174E0070696E672E2E2E00573A00576F6B65210B
:02175E00000089
:00000001FF
